:020000040800F2
:1000000078A40020A1010008332300082B23000856
:100010002F2300081F1D00080F2800080000000003
:10002000000000000000000000000000452400085F
:100030009922000800000000C123000835250008AF
:10004000BB010008BB010008BB010008BB010008A0
:10005000BB010008BB010008BB010008BB01000890
:10006000BB010008BB010008BB010008BB01000880
:10007000BB010008BB010008BB010008BB01000870
:10008000B11F0008BB010008BB010008BB0100084C
:10009000BB010008BB010008BB010008BB01000850
:1000A000BB010008BB010008BB010008BB01000840
:1000B000BB010008BB010008BB010008BB01000830
:1000C000BB010008BB010008BB010008BB01000820
:1000D000BB010008BB01000839270008BB0100086C
:1000E000BB010008BB010008BB010008BB01000800
:1000F000BB010008BB010008BB010008BB010008F0
:10010000BB010008BB010008BB010008BB010008DF
:10011000BB010008BB010008BB010008BB010008CF
:10012000D91F0008BB010008BB010008BB01000883
:10013000BB010008BB010008BB010008BB010008AF
:10014000BB010008BB010008BB010008BB0100089F
:10015000BB010008BB010008BB010008BB0100088F
:10016000BB010008BB010008BB010008BB0100087F
:10017000BB010008BB010008BB010008BB0100086F
:10018000BB010008BB010008DFF810D001F0F4FB50
:10019000004800472D370008AFF3008078A4002006
:1001A0000648804706480047FEE7FEE7FEE7FEE711
:1001B000FEE7FEE7FEE7FEE7FEE7FEE7392500087B
:1001C000890100082DE9F04F4FF0000C4FF00003BB
:1001D00001EB9C5EBEF90250BEF900400EF5806E48
:1001E000BEF90290BEF900800EF5806EBEF9027075
:1001F000BEF900600EF5806EBEF902B0BEF900A037
:100200000EF5806ED044D944A8EB4A0AA9EB4B0BFB
:100210004FEAA4044FEAA50504EBA60405EBA705E5
:10022000A4EB6606A5EB670704EBA80405EBA9059C
:10023000A4EB6808A5EB690906EBAB06A7EBAA07D8
:10024000A6EB6B0B07EB6A0A458020F8044B47804E
:1002500020F8046BA0F8029020F8048BA0F802A00C
:1002600020F804BB03F1010393FAA3FCB3F5807FEC
:10027000AED1A0EB82014FF0100312090FF234103F
:1002800000F1000006B403EB430C6144A2F5803298
:1002900002EB8332B1F90250B1F90040A1EB030146
:1002A000B0F902B0B0F900A000F10400A5EB040E13
:1002B0000EFB0BFC0AEB4B0E05FB0ACB04FB0ECA34
:1002C000B1F90250B1F90040A1EB0301B0F902907D
:1002D000B0F9008000F10400A5EB040E0EFB09FC50
:1002E00008EB490E05FB08C904FB0EC8B1F9025022
:1002F000B1F90040A1EB0301B0F90270B0F9006060
:1003000000F10400A5EB040E0EFB07FC06EB470E04
:1003100005FB06C704FB0EC6B1F90250B1F9004057
:1003200001F10001D044D944A8EB4A0AA9EB4B0BD8
:100330004FEAA4044FEAA50504EB264405EB274544
:10034000A4EBE636A5EBE73704EB284405EB29459B
:10035000A4EBE838A5EBE93906EB2B46A7EB2A47D7
:10036000A6EBEB3B07EBEA3A4D800C8019444F803B
:100370000E801944A1F80290A1F800801944A1F858
:1003800002A021F804BBB2F5803283DA03EB430C00
:100390006144A2F101025FEA024E18BFA0EB0C001B
:1003A0007FF476AF06BC4FEA830392087FF46AAF0E
:1003B000BDE8F08F00400000004000000040000059
:1003C0005DDD213BA3227E180000412D7EA5412D3D
:1003D0000000412D00C000405DDD82E75DDD213B76
:1003E0007EA5412D004000000040000000400000BC
:1003F000AA2A94126B39460649327C0CA8118E2326
:1004000049327C0CA3227E1821F77931AA2A941252
:10041000A8118E235DDD213BA3227E180000412D13
:1004200095C6B13F461A2B1E58EE3735BEB4C53EB1
:10043000A8118E235DDD213B63A97138DF089A285E
:10044000B7CDC53E7EA5412D0000412D00C0004026
:1004500063A92B1E21F77931BEB4C53EBEB47C0C16
:1004600058EE373561AC213B95C6BAF9BAE571381B
:100470003BA737355DDD82E75DDD213B7EA5412D64
:1004800021F766D756D53F3D3BA78E23A811C9CA91
:10049000B7CDC53E61AC7E18AA2AC1C295C6B13F90
:1004A000BEB47C0C00400000004000000040000092
:1004B0001E3BB504693E9201C83C2403EB35640938
:1004C000C83C24036B3946066C30060E1E3BB5044F
:1004D000EB356409AA2A94126B39460649327C0C22
:1004E000AE240917AF37D607882E8D0F7E1E5D1BF1
:1004F000EB356409AA2A941224188C1F1E34F10AC1
:10050000B3269015A8118E2349327C0CA3227E18A5
:10051000140B60276C30060E7E1E5D1B7104FB2AD7
:10052000882E8D0F461A2B1EC7FD5A2E9D2C121198
:10053000FE15E72021F77931AA2A9412A8118E23FB
:1005400087F05334B2281314480D202602EAE5360A
:10055000B3269015DF089A289CE32B39AE2409179F
:100560007104FB2A5DDD213BA3227E180000412D92
:100570004ED7C53C9320EF198FFB6C2F78D1153ED9
:100580007E1E5D1B21F77931E2CB0F3F641CC61C38
:10059000B8F2683395C6B13F461A2B1E58EE373570
:1005A00097C1FB3F24188C1F02EAE536F0BCEC3FF4
:1005B000FE15E720BAE57138A6B8853FD5133D2270
:1005C00082E1DB39BEB4C53EA8118E235DDD213B3F
:1005D00040B1AF3D790FDA244DD9423C2EAE423CBA
:1005E000480D202656D53F3D8EAB823A140B60272E
:1005F00078D1153E63A97138DF089A28B7CDC53E7A
:10060000B1A71236A906CE2915CA4F3F78A668337E
:100610007104FB2A95C6B13FBCA576303902212C66
:1006200038C3EC3F7EA5412D0000412D00C00040A5
:10063000BCA5CE29C7FD5A2EF0BCEC3F78A62026DB
:100640008FFB6C2F09BAB13FB1A73D2257F9763025
:100650004DB74F3F63A92B1E21F77931BEB4C53E7C
:100660008EABEF19ECF474325EB2153E2EAE9015DF
:10067000B8F268332DB03F3D40B1121187F05334CA
:100680002EAE423CBEB47C0C58EE373561AC213BFB
:10069000A6B8D6072BEC1236C8AADB39F0BC240367
:1006A00002EAE53663A9713897C16EFEDCE7B03720
:1006B00034A8E53695C6BAF9BAE571383BA737359F
:1006C000E2CB0FF59CE32B3978A6683378D173F031
:1006D00082E1DB39EDA579314ED7EDEB6DDF823A62
:1006E00099A56C2F5DDD82E75DDD213B7EA5412D67
:1006F0009CE33AE352DBB63B99A5FB2A02EA19DFF9
:100700004DD9423CEDA59A2887F026DB4ED7C53C53
:1007100078A6202621F766D756D53F3D3BA78E23E6
:10072000C7FDDFD363D3AF3D34A8E720710494D075
:1007300078D1153E63A92B1E140B8CCD94CF723E3D
:10074000C8AA5D1BA811C9CAB7CDC53E61AC7E1849
:10075000241850C8E2CB0F3F2EAE90157E1E25C642
:1007600015CA4F3F2DB09412AE244AC451C8853FDC
:100770005EB28D0FAA2AC1C295C6B13FBEB47C0C31
:100780006C308EC1E2C4D43F4DB76409EB35B1C0C3
:1007900038C3EC3F09BA46061E3B2CC097C1FB3F4D
:1007A000F0BC2403004000000040000000400000B6
:1007B000D03E2E019B3F6500363FC9009A3D5B024B
:1007C000363FC900693E92015F3C8803D03E2E014E
:1007D0009A3D5B021E3BB504693E9201C83C24036E
:1007E000D939E205023EF701F43BED038E380E07DE
:1007F0009A3D5B021E3BB5043F373908313DC002CC
:10080000463A7E05EB356409C83C24036B3946063D
:1008100092348E0A5F3C88038E380E073433B70B50
:10082000F43BED03AF37D607D231DF0C8A3B5104DE
:10083000CE369D086C30060E1E3BB504EB356409C0
:10084000022F2B0FB23A1A0505352B0A932D5010A3
:10085000463A7E051E34F10A212C7311D939E2057E
:100860003433B70BAA2A94126B39460649327C0CF2
:100870003129B413FD38AA065B31410DB327D214D8
:100880008E380E076C30060E3226EE151F387207B2
:100890007B2FCA0EAE240917AF37D607882E8D0FCF
:1008A000262321183F373908932D50109C213719E2
:1008B000CE369D089D2C12110E204B1A5D36010973
:1008C000A42BD3117E1E5D1BEB356409AA2A94125A
:1008D000EB1C6C1C7835C709AF295413561B791DC6
:1008E00005352B0AB2281314BE19841E92348E0AC1
:1008F000B327D21424188C1F1E34F10AB326901586
:1009000088169120A933540BB1254C16EA14932173
:100910003433B70BAE2409174A139222BF321A0C94
:10092000A923C417A8118E2349327C0CA3227E1858
:1009300005108824D231DF0C9C213719610E7E25E9
:100940005B31410D9320EF19BB0C7126E430A40DEF
:10095000891FA71A140B60276C30060E7E1E5D1BC4
:100960006D094C28F42F680E721D121CC40735291E
:100970007B2FCA0E641CC61C1B061A2A022F2B0FC3
:10098000561B791D7104FB2A882E8D0F461A2B1ECB
:10099000C702D82B0E2EEE0F3519DC1E1C01B22C0F
:1009A000932D501024188C1F72FF882D182DB11014
:1009B00011173A20C7FD5A2E9D2C1211FE15E72063
:1009C0001DFC282F212C7311EA14932173FAF22FA6
:1009D000A42BD311D5133D22CAF8B830282B3412DA
:1009E000BF12E72221F77931AA2A9412A8118E2387
:1009F00079F536322D2AF41291103524D2F3EF32E4
:100A0000AF295413790FDA242CF2A3333129B4130C
:100A1000610E7E2587F05334B2281314480D20262A
:100A2000E3EEFF34332873142E0CC12641EDA535B7
:100A3000B327D214140B6027A1EB483633273115A6
:100A4000FA09FE2702EAE536B3269015DF089A2850
:100A500065E87E373226EE15C4073529CBE6123815
:100A6000B1254C16A906CE2932E5A1382F25AB16A3
:100A70008D05652A9CE32B39AE2409177104FB2AE6
:100A800008E2B0392B24661755038F2B77E0303AF4
:100A9000A923C4173902212CE9DEAB3A26232118F9
:100AA0001C01B22C5DDD213BA3227E180000412DEC
:100AB000D5DB923B1F22DB18E4FECF2D4FDAFD3B46
:100AC0009C213719C7FD5A2ECDD8643C17219319A4
:100AD000ABFCE42E4ED7C53C9320EF198FFB6C2F57
:100AE000D3D5213D0E204B1A73FAF22F5CD4783DFA
:100AF000891FA71A57F97630E8D2C93D041F021B97
:100B00003CF8F93078D1153E7E1E5D1B21F7793116
:100B10000CD05C3EF81DB81B06F6F831A5CE9D3E04
:100B2000721D121CECF4743241CDD83EEB1C6C1CCF
:100B3000D2F3EF32E2CB0F3F641CC61CB8F268332D
:100B400088CA403FDD1B201D9FF1DF3332C96B3F58
:100B5000561B791D87F05334E1C7913FCE1AD31D40
:100B60006FEFC63495C6B13F461A2B1E58EE373587
:100B70004EC5CC3FBE19841E41EDA5350CC4E13FE6
:100B80003519DC1E2BEC1236CFC2F13FAD18341FE5
:100B900016EB7D3697C1FB3F24188C1F02EAE53621
:100BA00065C000409B17E31FEFE84B3738BFFF3F9E
:100BB00011173A20DCE7B03711BEF83F88169120B4
:100BC000CBE61238F0BCEC3FFE15E720BAE57138F1
:100BD000D4BBDB3F74153D21AAE4CF38BFBAC43F74
:100BE000EA1493219CE32B39AFB9A73F5F14E821A6
:100BF0008EE28439A6B8853FD5133D2282E1DB39E8
:100C0000A2B75D3F4A13922277E0303AA5B6303F53
:100C1000BF12E7226DDF823AAFB5FD3E34123B23AF
:100C200064DED33ABEB4C53EA8118E235DDD213B00
:100C3000D5B3883E1D11E22357DC6D3BF2B2453E31
:100C40009110352452DBB63B15B2FC3D05108824CB
:100C50004FDAFD3B40B1AF3D790FDA244DD9423C2C
:100C600071B05B3DED0E2C254DD8853CA9AF033D01
:100C7000610E7E254ED7C53CE8AEA53CD40DCF25F0
:100C800051D6033D2EAE423C480D202656D53F3D61
:100C90007BADDA3BBB0C71265CD4783DD0AC6D3BB0
:100CA0002E0CC12663D3AF3D2BACFA3AA10B112712
:100CB0006DD2E33D8EAB823A140B602778D1153E9E
:100CC000F8AA063A870AAF2785D0453E6AAA843932
:100CD000FA09FE2794CF723EE3A9FD386D094C282E
:100CE000A5CE9D3E63A97138DF089A28B7CDC53ED1
:100CF000EBA8E1375208E728CCCCEB3E7BA84B377A
:100D0000C4073529E2CB0F3F12A8B1363607812937
:100D1000FBCA303FB1A71236A906CE2915CA4F3FEC
:100D200057A76E351B061A2A32C96B3F05A7C63472
:100D30008D05652A51C8853FBBA61934FF04B02A2A
:100D400072C79C3F78A668337104FB2A95C6B13FF1
:100D50003EA6B232E303452BBAC5C43F0BA6F83119
:100D600055038F2BE2C4D43FE0A53931C702D82BFD
:100D70000CC4E13FBCA576303902212C38C3EC3FCE
:100D8000A1A5AF2FAA016A2C66C2F53F8DA5E42E5E
:100D90001C01B22C97C1FB3F81A5152E8E00FA2CA9
:100DA000CAC0FF3F7EA5412D0000412D00C000407C
:100DB00081A56A2C72FF882D38BFFF3F8DA58F2B30
:100DC000E4FECF2D73BEFB3FA1A5B02A56FE152E23
:100DD000B0BDF53FBCA5CE29C7FD5A2EF0BCEC3FF7
:100DE000E0A5E72839FD9F2E32BCE13F0BA6FE2788
:100DF000ABFCE42E77BBD43F3EA611271DFC282F69
:100E0000BFBAC43F78A620268FFB6C2F09BAB13F2A
:100E1000BBA62C2501FBAF2F56B99C3F05A7352457
:100E200073FAF22FA6B8853F57A73B23E5F9343074
:100E3000F8B76B3FB1A73D2257F976304DB74F3F1A
:100E400012A83D21CAF8B830A5B6303F7BA83A2099
:100E50003CF8F93000B60F3FEBA8341FAEF739313C
:100E60005EB5EB3E63A92B1E21F77931BEB4C53EBA
:100E7000E3A9201D93F6B93122B49D3E6AAA121C43
:100E800006F6F83188B3723EF8AA021B79F53632BD
:100E9000F2B2453E8EABEF19ECF474325EB2153E01
:100EA0002BACDB185FF4B232CDB1E33DD0ACC4174C
:100EB000D2F3EF3240B1AF3D7BADAB1645F32C33EF
:100EC000B5B0783D2EAE9015B8F268332DB03F3DE9
:100ED000E8AE73142CF2A333A9AF033DA9AF5413AA
:100EE0009FF1DF3328AFC53C71B0341213F11934D0
:100EF000A9AE853C40B1121187F053342EAE423C6E
:100F000015B2EE0FFBEF8D34B6ADFD3BF2B2CA0E5B
:100F10006FEFC63441ADB63BD5B3A40DE3EEFF345D
:100F2000D0AC6D3BBEB47C0C58EE373561AC213B88
:100F3000AFB5540BCCED6E35F6ABD33AA5B62B0A54
:100F400041EDA5358EAB823AA2B70109B6ECDC358E
:100F500029AB303AA6B8D6072BEC1236C8AADB3933
:100F6000AFB9AA06A1EB48366AAA8439BFBA7E0592
:100F700016EB7D360FAA2B39D4BB51048CEAB1365F
:100F8000B7A9CF38F0BC240302EAE53663A971386B
:100F900011BEF70178E9183712A9123838BFC90015
:100FA000EFE84B37C5A8B03765C09BFF65E87E37D3
:100FB0007BA84B3797C16EFEDCE7B03734A8E53627
:100FC000CFC240FD53E7E137F1A77D360CC413FCD7
:100FD000CBE61238B1A712364EC5E6FA42E64238E1
:100FE00074A7A53595C6BAF9BAE571383BA7373568
:100FF000E1C78EF832E5A13805A7C63432C963F7D8
:10100000AAE4CF38D3A6533488CA39F623E4FD388E
:10101000A4A6DF33E2CB0FF59CE32B3978A6683327
:1010200041CDE6F315E3583950A6EF32A5CEBFF215
:101030008EE284392CA674320CD098F108E2B039D3
:101040000BA6F83178D173F082E1DB39EDA5793167
:10105000E8D24FEFFCE0063AD3A5F9305CD42DEE90
:1010600077E0303ABCA57630D3D50CEDF2DF593AB3
:10107000A9A5F22F4ED7EDEB6DDF823A99A56C2F23
:10108000CDD8CFEAE9DEAB3A8DA5E42E4FDAB4E94C
:1010900064DED33A85A55A2ED5DB9AE8E1DDFA3A2B
:1010A0007FA5CF2D5DDD82E75DDD213B7EA5412D56
:1010B000E9DE6DE6DADC473B7FA5B22C77E059E547
:1010C00057DC6D3B85A5212C08E248E4D5DB923B3B
:1010D0008DA58F2B9CE33AE352DBB63B99A5FB2A07
:1010E00032E52DE2D1DADA3BA9A5652ACBE624E187
:1010F0004FDAFD3BBCA5CE2965E81DE0CED9203CEA
:10110000D3A5352902EA19DF4DD9423CEDA59A282D
:10111000A1EB18DECDD8643C0BA6FE2741ED19DD0E
:101120004DD8853C2CA66027E3EE1EDCCDD7A53C30
:1011300050A6C12687F026DB4ED7C53C78A62026D0
:101140002CF231DACFD6E43CA4A67E25D2F33FD9E7
:1011500051D6033DD3A6DA2479F551D8D3D5213D14
:1011600005A7352421F766D756D53F3D3BA78E23EB
:10117000CAF87FD6D8D45B3D74A7E72273FA9BD513
:101180005CD4783DB1A73D221DFCBBD4DFD3933D99
:10119000F1A79321C7FDDFD363D3AF3D34A8E72088
:1011A00072FF06D3E8D2C93D7BA83A201C0131D298
:1011B0006DD2E33DC5A88C1FC70261D1F2D1FC3DC1
:1011C00012A9DC1E710494D078D1153E63A92B1EA0
:1011D0001B06CCCFFED02D3EB7A9791DC40707CF83
:1011E00085D0453E0FAAC61C6D0947CE0CD05C3E8B
:1011F0006AAA121C140B8CCD94CF723EC8AA5D1B38
:10120000BB0CD4CC1CCF883E29ABA71A610E21CCD5
:10121000A5CE9D3E8EABEF19051073CB2ECEB13E01
:10122000F6AB3719A811C9CAB7CDC53E61AC7E1857
:101230004A1324CA41CDD83ED0ACC417EA1483C99E
:10124000CCCCEB3E41AD09178816E8C857CCFD3E23
:10125000B6AD4C16241850C8E2CB0F3F2EAE9015F9
:10126000BE19BEC76ECB203FA9AED214561B31C7E4
:10127000FBCA303F28AF1314EB1CA8C688CA403FF6
:10128000A9AF54137E1E25C615CA4F3F2DB0941228
:101290000E20A7C5A3C95D3FB5B0D3119C212DC5B4
:1012A00032C96B3F40B112112623B9C4C1C8783F7F
:1012B000CDB15010AE244AC451C8853F5EB28D0FE7
:1012C0003226E0C3E1C7913FF2B2CA0EB3277BC317
:1012D00072C79C3F88B3060E31291CC303C7A73FC2
:1012E00022B4410DAA2AC1C295C6B13FBEB47C0C3E
:1012F000212C6DC227C6BB3F5EB5B70B932D1DC217
:10130000BAC5C43F00B6F10A022FD3C14EC5CC3FC7
:10131000A5B62B0A6C308EC1E2C4D43F4DB7640928
:10132000D2314FC176C4DB3FF8B79D08343315C1C5
:101330000CC4E13FA6B8D6079234E0C0A1C3E73F92
:1013400056B90E07EB35B1C038C3EC3F09BA4606B3
:101350003F3788C0CFC2F13FBFBA7E058E3864C028
:1013600066C2F53F77BBB504D93945C0FEC1F83F29
:1013700032BCED031E3B2CC097C1FB3FF0BC2403E5
:101380005F3C19C030C1FD3FB0BD5B029A3D0BC050
:10139000CAC0FF3F73BE9201D03E03C065C000408B
:1013A00038BFC9002DE9FE4F804681EA0300C00F17
:1013B0000C46009021F0004123F00045B8EB0200FC
:1013C000A94105D24046214690461C460B4602469E
:1013D00023F00040104347D0270DC7F30A00C3F3A2
:1013E0000A510290401A019040286BDAC3F31300AF
:1013F00040F4801B0098924620B10023D2EB030AF0
:1014000063EB0B0B01985946C0F14002504600F0C7
:10141000D3F906460D4650465946019A00F0EBF9BD
:1014200010EB08006141002487EA115284EAE77357
:101430001A4340D0009A62B3019A012A4FEA075238
:1014400015DC001B61EB02014FF0004202EA07527B
:10145000CDE90042001C41F5801132462B4600F0D8
:10146000EBF903B0BDE8F08F40462146F9E7001BD9
:1014700061EB0201001C41F5801300185B4120184C
:10148000A2F5001747EB030140EAD570B6196D418C
:1014900011E06D084FEA360645EAC0754FEA07527B
:1014A000001B61EB0201001C41F5801149084FEA65
:1014B00030000019514132462B4603B0BDE8F04FD1
:1014C00000F0ABB90098012240000023D0EB0202EB
:1014D00063EBE073009821464FEAE074B8EB00003C
:1014E00061EB0401E9E783F000435BE781F0004131
:1014F00058E72DE9FE4F81EA030404F0004421F08F
:10150000004100944FF0000B23F0004350EA010427
:101510005ED052EA03045BD0C3F30A54C1F30A5508
:101520002C44A4F2F3340194A0FB0254C1F3130140
:1015300041F48011C3F3130343F4801301FB02440D
:1015400000FB034E840A970A44EA815447EA835712
:10155000A4FB076802958D0A05FB07854FEA932CCB
:1015600004FB0C542705029D4FEA065847EA16373C
:10157000B5EB08056EEB070C870E920E47EA811754
:1015800042EA8312A7FB0201B6EB0B0164EB0004F5
:101590002B0D43EA0C335E1844EB1C50DA465146DF
:1015A000E7FB0201C5F313044FEA0B3343EA14537C
:1015B0004FEA0432019C43EA0603A4F10C040294AE
:1015C000009CCDE900B400F037F903B0BDE8F08F1E
:1015D00000200146F9E72DE9F04D81EA030404F00B
:1015E000004B21F0004514464FF0000A23F0004163
:1015F00050EA050220D054EA01021DD0C5F30A5773
:101600000246C5F31303C1F31300C1F30A5640F4B5
:10161000801543F48013A7EB0608101BD64608F28A
:10162000FD3873EB050002D308F1010801E09218C0
:101630005B41B8F1000F03DA00200146BDE8F08DF0
:1016400000204FF48011064684460EE0171B73EB12
:10165000050705D3121B63EB050306434CEA010C97
:1016600049084FEA300092185B4150EA0107EDD17A
:1016700052EA030012D082EA040083EA050108431B
:1016800005D0101BAB4106D20122002306E0002248
:101690004FF0004302E06FF0010253101AEB060016
:1016A0004CEB085110EB0A0041EB0B01BDE8F04D8B
:1016B00000F0B3B80EB5C10F80EAE0700844CA0765
:1016C000002140F233438DE80E000A460B4600F03D
:1016D000B3F803B000BD0EB540F2334102910021D2
:1016E000CDE900110A460B4600F0A6F803B000BD94
:1016F00070B5C1F30A5201F000450024C1F3130193
:1017000040F2FF3341F480119A4201DA002070BDAB
:1017100040F233439A42A2F2334203DC524200F0D9
:101720005AF800E090402C43F1D0404270BDC1F324
:101730000A5210B5C1F3130140F2FF3341F4801196
:101740009A4201DA002010BD40F233439A42A2F2DD
:10175000334203DC524200F03EF810BD904010BD11
:1017600000F0004230F000400AD0C10D01F5607178
:10177000C0F3160042EA0151C20840071143704706
:10178000002001467047000030B5041E71F10004CE
:1017900004DB4FF00044404264EB0101141E73F17E
:1017A000000405DB1C464FF00043524263EB040388
:1017B0008B4208BF824230BD202A04DB203A00FA67
:1017C00002F1002070479140C2F1200320FA03F398
:1017D000194390407047202A04DB203A21FA02F096
:1017E0000021704721FA02F3D040C2F1200291405B
:1017F000084319467047202A06DBCB17203A41FAE6
:1018000002F043EAE07306E041FA02F3D040C2F18D
:101810002002914008431946704710B5141E73F119
:10182000000408DA401C41F1000192185B411A43A0
:1018300001D120F0010010BD2DE9F04D92469B46EC
:1018400011B1B1FA81F202E0B0FA80F22032904692
:10185000FFF7B2FF04460F4640EA0A0041EA0B01D7
:1018600053465A46084313D0114653EA010019D093
:10187000C8F140025046FFF7AEFF05460E465046FF
:1018800059464246FFF798FF084305D0012004E07F
:1018900020463946BDE8F08D0020054346EAE07653
:1018A0002C4337430A986305E40AA0EB08000022A2
:1018B000FD0A44EA47540A3002D500200146E9E710
:1018C000010510196941DDE9084500196941BDE8C4
:1018D000F04DA2E72DE9F04D00231A461B1A8A416C
:1018E00003DB00200146BDE8F08DC1F30A52C1F3CD
:1018F000130141F480154FF0000BD10702D10018FD
:101900006D41521E0027044640F2FF11384601EB9C
:10191000620A3E468046024600204FF48011FFF7DF
:101920005AFFC2197141BB1846EB0100B4EB030C1E
:1019300075EB000C04D3E41A65EB000517460E4660
:10194000241908F101006D4180463428E3DDF919BE
:1019500046EB0600091BA84103D24FF0FF321346A5
:1019600001E0002213461BEB070046EB0A51BDE8DD
:10197000F04DFFF752BF0000064C074D06E0E0684F
:1019800040F0010394E8070098471034AC42F6D3C6
:10199000FEF7FEFB203B0008403B000870B58D18A9
:1019A00010F8014B14F0030201D110F8012B2311A0
:1019B00006D110F8013B03E010F8016B01F8016B50
:1019C000521EF9D1ABB110F8012B04F00C048A1AA5
:1019D0000C2C03D0A2EB84129B1C08E010F8014BE6
:1019E000A2EB0422F8E712F8014B01F8014B5B1E51
:1019F000F9D5A942D4D3002070BD21B1826842F04C
:101A00000102826003E0826822F001028260704776
:101A10000021084A1168084A1140D0E900231A43FE
:101A200083681A43C3681A431143044AC2F8041373
:101A30007047000004230140E030FCFF002001401B
:101A400000B59BB000F0C0F8414800F0FDFA01215C
:101A5000880500F0B7FC0121080200F0D3FC382013
:101A60008DF8040000208DF805008DF80600012097
:101A70008DF8070001A800F05DFC002002903548B9
:101A8000039035480490002005904FF47A7006903A
:101A9000002007904FF4806008904000099080007B
:101AA0000A9000200B904FF400300C9000200D9015
:101AB00001200E9000200F90109002A9244800F001
:101AC000BFFB0021224800F0B3FA2449204800F06F
:101AD00095FA012210211E4800F094FB002011907D
:101AE00012901390149011A8FFF792FF0020159008
:101AF0008DF858008DF859004FF080501790401025
:101B000018900020199001208DF8680015A911483F
:101B10004C3800F079F80023012209210D484C3897
:101B200000F09CF801210B484C3800F024F801210A
:101B300008484C3800F014F8012106484C38FFF7EB
:101B40005CFF04484C3800F0E5F81BB000BD000015
:101B5000106402404C200140A85C0020208000104E
:101B600021B1826842F48072826003E0826822F4CC
:101B700080728260704721B1826842F40072826094
:101B800003E0826822F400728260704710B5044658
:101B90000A48006820F0010008490860081D046038
:101BA0000749001F00F02AFA002006490860034890
:101BB000006840F001000149086010BD1064024057
:101BC0003CF000100020014010B50121080200F097
:101BD00029FC00214FF4807000F024FC10BD0000AF
:101BE0001CB50121022000F0EDFB02200090032033
:101BF0008DF8040000208DF807006946014800F0C8
:101C00004CFB1CBD0004024030B5024600200023FE
:101C10005068104C20400D790C6844EA052420439C
:101C2000506090680C4C2040D1E903542C438D68DF
:101C30002C434D7944EA450420439060D06A20F457
:101C400070000C7D641EE4B2234340EA0350D0626E
:101C500030BD0000FFFEFFFCFDF7FFC0F0B50446FD
:101C60000D4600200021092D11DDE068A5F10A06CE
:101C700006EB4607072606FA07F18843A5F10A0690
:101C800006EB460603FA06F10843E0600CE0206923
:101C900005EB4507072606FA07F1884305EB4506DD
:101CA00003FA06F108432061072A0FDA606B561E1B
:101CB00006EB86071F2606FA07F18843561E06EB39
:101CC000860605FA06F10843606322E00D2A0FDA62
:101CD000206BD61F06EB86071F2606FA07F18843FE
:101CE000D61F06EB860605FA06F10843206310E0CE
:101CF000E06AA2F10D0606EB86071F2606FA07F139
:101D00008843A2F10D0606EB860605FA06F10843A4
:101D1000E062F0BD816841F080418160704700BFA2
:101D2000FEE7000000B597B00121084600F04AFB2D
:101D30000121480700F056FB0121480500F042FB55
:101D40001020159003208DF8580000208DF85B00BE
:101D500015A92E4800F0A1FA00201390022014903B
:101D60002C2011900020129011A900F0E7F800211A
:101D7000084600F0FDF84FF0606002904FF480706C
:101D80000B9040200590C82006904FF480300C90B6
:101D900000200D9001200E901D48049000200F900F
:101DA0004FF400500A90C01008901A480390002089
:101DB00010904FF4006009900020079002A9164887
:101DC00000F03EFA0121144800F032F90121002010
:101DD00000F09EF80121002000F086F84FF4C0606A
:101DE00000F0E4FA10208DF8040001208DF80500C1
:101DF0008DF806008DF8070001A800F09BFA01227B
:101E00001021054800F0FEF917B000BD00000240A7
:101E100028000020087400408860024000B595B09A
:101E20000121084600F0CEFA0121480700F0DAFA55
:101E30000121480500F0C6FA2020139003208DF8F8
:101E4000500000208DF8530013A9234800F025FA14
:101E5000002011900220129004200F90002010907A
:101E60000FA9102000F06AF80021084600F090F851
:101E70004FF0606000904FF4807009904020039014
:101E8000C82004904FF480300A9000200B900C90F2
:101E90001248029000200D904FF400500890C0109E
:101EA00006900F48019000200E904FF400600790BC
:101EB0000020059069460B4800F0C2F9012109484D
:101EC00000F0B6F80121102000F022F801211020C6
:101ED00000F00AF815B000BD00000240B801002073
:101EE00014740040A060024039B1084A126801230E
:101EF00083401A43054B1A6006E0044A1268012326
:101F000083409A43014B1A60704700000074004000
:101F100041B1094A12684FF4805383401A43064B7B
:101F20001A6007E0044A12684FF4805383409A43D2
:101F3000014B1A60704700000074004030B5002269
:101F400000230A4C226840F6FE748440A243D1E983
:101F500000452C438D682C43CD6844EA050303FA01
:101F600000F42243014C226030BD000000740040A8
:101F700008B500220092054A009200F10802009B79
:101F80001A440092009A116008BD000000740040DD
:101F900008B500220092054A009200F11402009B4D
:101FA0001A440092009A116008BD000000740040BD
:101FB00010B50649064800F0F3F830B1034904486B
:101FC00000F01CF801200349087010BD00880020B3
:101FD000886002402600002010B50649064800F03F
:101FE0000DF84FF6FF700449091F0860091F0860CB
:101FF00010BD00003CF00010106402400246094B86
:102000009A4201D2084801E00648103801F0005316
:102010001BB1064B0B40C36002E0044B0B408360D6
:102020007047000010640240006002407D0F7D0F89
:1020300021B1026842F00102026003E0026822F06E
:102040000102026070470000016821F00101016097
:102050000021016041608160C16001612121416115
:102060004A49884204D13D21484A103A91608CE0A7
:1020700046491831884205D14FF47461434A103AF9
:10208000916082E041493031884205D14FF47411AA
:102090003E4A103A916078E03C494831884205D187
:1020A0004FF07461394A103A91606EE037496031FF
:1020B000884204D13649354A103AD16065E0334947
:1020C0007831884204D13349304A103AD1605CE01B
:1020D0002E499031884204D12F492C4A103AD160C0
:1020E00053E02A49A831884205D14FF03D51274A93
:1020F000103AD16049E02949884204D13D21274A5C
:10210000083A116041E025491831884205D14FF461
:102110007461224A083A116037E020493031884220
:1021200005D14FF474111D4A083A11602DE01B4986
:102130004831884205D14FF07461184A083A11605D
:1021400023E016496031884204D11149134A121F15
:1021500011601AE011497831884204D10D490F4AC3
:10216000121F116011E00D499031884204D10A49D3
:102170000A4A121F116008E00849A831884204D1B8
:102180004FF03D51054A121F116070471060024028
:102190003D000020400F002000003D201064024060
:1021A00070B50246002000240025124EB24201D232
:1021B000114B01E00F4B103B104E0E4036B11E2666
:1021C00006EAD124166806EA040502E0566906F01C
:1021D000800501F000560EB15C6800E01C68084EF6
:1021E000344004EA010616B10DB1012000E00020E0
:1021F00070BD000010640240006002403C0F3C0FC4
:102200007D0F7D0F10B501F080034BB122B1436902
:1022100043F08003436103E0436923F0800343619B
:1022200080290BD02AB1036801F01E042343036008
:1022300004E0036801F01E04A343036010BD000026
:1022400010B500220268134B1A40CC680B68234378
:102250004C6923438C692343CC6923430C6A234391
:102260004C6A23438C6A23434C6B23438C6B23437C
:102270001A430260426922F00702D1E90B3423437A
:102280001A4342610B6943604B6883608B68C3608B
:1022900010BD00003F801CF07047F0B50A460021D9
:1022A0000023002400BF3DE0012505FA01F3156875
:1022B00005EA03049C4234D105684F000326BE4062
:1022C000B543056015794E00B54006683543056095
:1022D0001579012D02D01579022D16D185684F0090
:1022E0000326BE40B543856055794E00B5408668EB
:1022F00035438560456801268E40B5434560456895
:1023000096798E40B6B235434560C5684F000326C6
:10231000BE40B543C560D5794E00B540C66835436B
:10232000C560491C1029BFD3F0BD00BFFEE700BF48
:10233000FEE7704770B5002100230F22C4781CB35C
:10234000174C246804F4E064C4F5E064C4F3072186
:10235000C1F10404E3B20A4144789C40E1B28478BC
:10236000144021430C07210E0E4C0578615504786A
:1023700004F01F050124AC4005786D11AD0005F196
:10238000E025C5F8004109E0047804F01F050124A8
:10239000AC40054D0678761145F8264070BD00002A
:1023A0000CED00E000E400E080E100E002490143C0
:1023B000024A1160704700000000FA050CED00E0D1
:1023C0007047000029B1064A12680243044B1A60A4
:1023D00004E0034A12688243014B1A607047000010
:1023E0003038024029B1064A12680243044B1A6091
:1023F00004E0034A12688243014B1A6070470000F0
:102400004038024029B1064A12680243044B1A6060
:1024100004E0034A12688243014B1A6070470000CF
:102420004438024029B1064A12680243044B1A603C
:1024300004E0034A12688243014B1A6070470000AF
:1024400024380240704700000CB500200190009035
:102450003448006840F480303249086000BF314899
:10246000006800F4003000900198401C0190009832
:1024700018B90198B0F5A04FF1D12A48006800F4CE
:10248000003010B10120009001E000200090009881
:10249000012846D123484030006840F0805021494F
:1024A000403108602048006840F440401E49086000
:1024B0001C48083000681B4908310860084600685D
:1024C00040F4004008600846006840F4A0500860EE
:1024D0001648091F0860081F006840F08070091F37
:1024E000086000BF0F48006800F000700028F9D0B5
:1024F00040F205700E4908600A480830006820F074
:1025000003000849083108600846006840F00200EE
:10251000086000BF03480830006800F00C0008287D
:10252000F8D10CBD0038024000700040195440073B
:10253000003C02407047000010B51548006840F4A8
:102540007000134908601348006840F00100114909
:10255000086000200F49083108600E4800680E49E5
:1025600008400C4908600D48091D0860081F0068F4
:1025700020F48020091F0860002006490C31086003
:10258000FFF762FF4FF0006001498039086010BD1D
:1025900088ED00E000380240FFFFF6FE1030002416
:1025A0000EB501210220FFF71DFF532001900020EE
:1025B000ADF80000ADF80800ADF802006946084823
:1025C00000F078F82021064800F06AF8012104485C
:1025D00000F048F80121024800F050F80EBD00005C
:1025E000000400400EB501210420FFF7FBFE0C485B
:1025F00000F050F8532001900020ADF80000ADF835
:102600000800ADF802002021054800F049F86946AD
:10261000034800F04FF80121014800F02FF80EBDEB
:10262000000800400EB501211020FFF7DBFE0C482A
:1026300000F030F8532001900020ADF80000ADF814
:102640000800ADF802002021054800F029F869468D
:10265000034800F02FF80121014800F00FF80EBDEB
:102660000010004021B1028842F08002028004E0A4
:1026700002884FF67F731A400280704721B10288AA
:1026800042F00102028004E002884FF6FE731A4015
:102690000280704701894FF6F8721140018170473E
:1026A00082884FF68F731A40828082880A43828024
:1026B0007047000000220288184B98420ED0184B39
:1026C00098420BD0B0F1804F08D0164B984205D0FD
:1026D000154B984202D0154B984204D14FF68F7398
:1026E0001A404B881A43124B984207D0114B98421C
:1026F00004D04FF6FF431A400B891A4302804B68FF
:10270000C3620B880385054B984202D0044B984264
:1027100001D18B7A03860123838270470000014038
:10272000000401400004004000080040000C00408C
:10273000001000400014004010B520211E4800F099
:1027400054F8012837D11C4800F05CF800B21B494E
:10275000088008460088012802D11949087025E040
:1027600001201849087015480088022805D116482C
:102770000068C01C1449086018E01048008803284D
:1027800005D111480068C01E0F4908600EE00B48D3
:102790000088042805D10C480068401C0A490860DC
:1027A00004E009480068401E0749086040F22551CE
:1027B000014800F00BF810BD004400402400002048
:1027C00048030020490300205803002010B50022D0
:1027D000002340F66A14A14200D100BF0A1201246E
:1027E0009440A3B2DC43048010BD02460020B1F542
:1027F000007F00D100BF13880B400BB1012000E027
:102800000020704701468888C0F30800704700BF69
:10281000FEE703B401984100009850EAC12018BFB8
:1028200004204A0D18BF40F0010040F2FF72B2EBE5
:10283000515F08BF40F00200012808BF052002B028
:10284000704700000000000070B59B482DED020BA2
:102850002DED068B079D25F00044A04218DC97481B
:10286000844202DC0AD1069840B19DED060BBDEC16
:10287000068B02B0BDE8704000F00BBB002DCCBF52
:102880009FED8F0B9FED900BBDEC068B02B070BDE2
:102890008F48A04215DD8F48A042D8BF4FF0FF34CB
:1028A00058DD9DED060B51EC100BFFF7B2FF04282D
:1028B00008BF00F005FB9DED060BBDEC068B02B0DA
:1028C00070BD9DED060B51EC100B00F021FCCDE925
:1028D000060181489FED828BA0423CDD8248A042E8
:1028E0001FDD00249FED82AB9DED060B53EC1A2BF0
:1028F00051EC100BFEF756FD9DED060B41EC190B4C
:1029000053EC1A2B51EC100BFEF7F3FD53EC182B84
:10291000FEF7E9FD53EC192BFEF75DFECDE906014C
:1029200049E09DED060B012453EC182B51EC100BE4
:10293000FEF738FD9DED060B41EC190B53EC182BFF
:1029400051EC100BFEF7CFFD53EC192BFEF743FEB5
:10295000CDE906012FE06848A0421FDD02249FED6B
:10296000689B9DED060B53EC192B51EC100BFEF7F9
:10297000C0FD53EC182BFEF715FD9DED060B41EC49
:10298000180B53EC192B51EC100BFEF7ACFD53EC6C
:10299000182BFEF720FECDE906010CE09DED060B9D
:1029A000032453EC102B9FED580B51EC100BFEF74A
:1029B00012FECDE906019DED060B53EC102B51ECF8
:1029C000100BFEF796FD41EC180B53EC182BFEF79D
:1029D00090FD41EC190B4E480621B0EE490AF0EE8D
:1029E000690A784400F0D9F953EC182B51EC100B1C
:1029F000FEF77FFD41EC180B4648B0EE490AF0EEB9
:102A0000690A0521784400F0C8F953EC192B51EC00
:102A1000100BFEF76EFD41EC100B51EC180B53EC54
:102A2000102B002C0EDAFEF7BDFC9DED061B53ECBF
:102A3000112BFEF75EFD9DED061B53EC112BFEF7EF
:102A400055FD35E0FEF7AEFC9DED061B53EC112B5A
:102A5000FEF74FFD41EC100B2F48784400EBC4000B
:102A600090ED001B51EC100B53EC112BFEF73BFDCE
:102A70009DED061B53EC112BFEF735FD41EC100BC1
:102A80002648784400EBC40090ED001B51EC100B7D
:102A900053EC112BFEF72AFD41EC100B002DA2BFC9
:102AA000BDEC068B02B070BD51EC100B81F0004103
:102AB00041EC100B01E70000000010440000F07F23
:102AC000182D4454FB21F93F182D4454FB21F9BF24
:102AD0000000DC3F0000203E0000F33F000000004B
:102AE000000000000000F03F0000E63F0000000092
:102AF00000000000000000400080034000000000D3
:102B0000000000000000F83F000000000000F0BFDF
:102B100002110000B810000042100000FA0F00007F
:102B200070B56F4E2DED040B2DED048B82B0DDF8EA
:102B300024C0DDE907235C422CF000411C4341EA3C
:102B4000D474069D22F00040B44205D86C422C4358
:102B500040EAD474B4420BD99DED081B9DED060BE1
:102B600002B0BDEC048B04B0BDE8704000F09BB92E
:102B7000ACF14054A4F17F641C430BD0022404EA5E
:102B8000AC7444EAD27405439FED578B9FED582BEC
:102B900007D015E09DED060B51EC100B00F0B6F9D7
:102BA00042E0002C11BF012C9DED060B02B0BDECE4
:102BB000048B04BF04B070BD022C38D0032C3BD072
:102BC0000B439FED4D1B9FED4E0B0AD0B14218D128
:102BD000B04209D121F0804120F080400991079056
:102BE0000FE0002A15DA10E0474B7B44002C08BFA9
:102BF00093ED000B0DD0012C10D0022C17D0032C1C
:102C00001AD0B0421DD1002A03DAB0EE410AF0EE2C
:102C1000610A02B0BDEC048B04B070BD93ED000BF3
:102C200051EC100B81F0004141EC100BF1E7B0EEDC
:102C3000480AF0EE680AECE7B0EE420AF0EE620AEB
:102C4000E7E7401A00159FED329B3C28C8BF8DED89
:102C5000000B17DCBCF1000FBCBF10F13C0F8DED79
:102C6000009B0FDB9DED080B53EC102B9DED060B2D
:102C700051EC100BFEF7AFFC00F04AFA00F046F9F9
:102C8000CDE90001B4B1012C10D0022C9FED220B34
:102C900053EC102B9DED000B51EC100B19D0FEF7EF
:102CA00022FC53EC182BFEF71EFCBDE7019880F0C8
:102CB000004001909DED000B53EC192B51EC100BD3
:102CC000FEF762FD04BF022000F01AF99DED000B33
:102CD0009FE7FEF708FC53EC182BFEF707FCA3E771
:102CE0000000F07F00000000182D4454FB21094033
:102CF000182D4454FB2109C0182D4454FB21F9BF61
:102D0000182D4454FB21F93F2A0F00000000000059
:102D10000000000000000000075C143326A6A13C60
:102D200000B52DED048BB0EE409AF0EE609A83B0C2
:102D300051EC190BFEF7CEFD41EC180B18EE100A02
:102D400018EE901A8DED008B002818BF0120084363
:102D500020F00040C0F17F6000F1E040C00F14D0CF
:102D600019EE101A19EE900A8DED009B002918BF7C
:102D70000121084320F00040C0F17F6000F1E040F5
:102D8000C00F04BF012000F0BBF8B0EE480A03B04A
:102D9000F0EE680ABDEC048B00BD70B504462DED65
:102DA000028B4D1E00EBC500B0EE408AF0EE608A4B
:102DB00090ED000B35F0060017D053EC182B51ECBA
:102DC000100BFEF796FB41EC100B6D1E04EBC500DB
:102DD00090ED001B51EC100B53EC112BFEF7E2FAB7
:102DE00041EC100B35F00600E7D1022D36D0042D52
:102DF0001CD0062D1CBFBDEC028B70BD53EC182BF4
:102E000051EC100BFEF775FB94ED0A1B53EC112BE4
:102E1000FEF7C8FA53EC182BFEF76BFB94ED081B7A
:102E200053EC112BFEF7BEFA41EC100B53EC182BB0
:102E300051EC100BFEF75DFB94ED061B53EC112BD0
:102E4000FEF7B0FA53EC182BFEF753FB94ED040B8E
:102E500053EC102BFEF7A6FA41EC100B53EC182B99
:102E600051EC100BFEF745FB94ED021B53EC112BBC
:102E7000FEF798FA53EC182BFEF73BFB94ED001B82
:102E800053EC112BFEF78EFABDEC028B41EC100BCC
:102E900070BD10B553EC102B51EC100BFEF782FAFD
:102EA00041EC100B10BD10B553EC112B51EC100B75
:102EB000FEF778FA41EC100B10BD00000000000096
:102EC0009FED050B10B553EC102B51EC100BFEF7DA
:102ED00010FB41EC100B10BD0000000000000010C2
:102EE00002E008C8121F08C1002AFAD170477047D3
:102EF000002001E001C1121F002AFBD17047000031
:102F00000149086070470000A45C002010B541EC46
:102F1000100BFFF799FC51EC100B10BDF0B52DED27
:102F2000068BCDB00546002432E0C8206043584AE5
:102F300002EB4001574800F0B1F8B0EE408AF0EEE5
:102F4000608AC8206043544A02EB4001514800F0B7
:102F5000A5F8B0EE409AF0EE609AB0EE491AF0EEA5
:102F6000691AB0EE480AF0EE680A00F057FD26A88C
:102F700000EBC40080ED000B26A800EBC40090ED30
:102F8000000B684600EBC40080ED000B601CC4B26F
:102F9000132CCADB002438E0002630E06946701CA0
:102FA00001EBC00090ED002BB0EE420AF0EE620A99
:102FB000684600EBC60090ED002BB0EE421AF0EE32
:102FC000621A53EC102B51EC110BFEF7DDFB14D2FF
:102FD000684600EBC60090ED00AB6946701C01EB43
:102FE000C00090ED000B684600EBC60080ED000BC2
:102FF000701C01EBC00080ED00AB701CC6B2C4F1C8
:103000001200B042CADC601CC4B2122CC4DB002423
:103010002FE09DED002BB0EE420AF0EE620A26A8EA
:1030200000EBC40090ED002BB0EE421AF0EE621AF5
:1030300053EC102B51EC110BFEF7A6FB00D12C70BA
:103040009DED022BB0EE420AF0EE620A26A800EBDC
:10305000C40090ED002BB0EE421AF0EE621A53EC71
:10306000102B51EC110BFEF78FFB00D16C70601C24
:10307000C4B2132CCDDB28786978884203DD2F7821
:10308000687828706F704DB0BDEC068BF0BD000005
:1030900094030020A85C0020442100202DE9F04189
:1030A0002DED048B05460E469FED170BB0EE408AC2
:1030B000F0EE608A00241BE0C82094FBF0F100FBD6
:1030C000114036F91000A0F5006035F91410A1F593
:1030D000006100FB01F73846FEF7ECFA41EC190BF2
:1030E00053EC182BFEF75EF941EC180B601C04B290
:1030F000B4F57A7FE0DBB0EE480AF0EE680ABDEC8A
:10310000048BBDE8F081000000000000000000001A
:1031100082B0CDE9000121F0004001909DED000B4F
:1031200002B051EC100B70472DE9F05F2DED0A8BCA
:10313000ADF5215D04460F464FF00009002505E07E
:10314000FE4830F915008144681C05B2B5F5806F62
:10315000F6DB48464FEAE97109EB91514FEAA12BA2
:10316000002511E0F54830F81500A0EB0B0000B287
:1031700069000DF5C25222F8110000216800401CC0
:1031800022F81010681C05B2B5F5806FEADB4FF429
:1031900080620DF5C2510DF50460FDF713F80025AE
:1031A00019E068000DF5046131F8100010FB00F122
:1031B0006800401C0DF5046232F810206800401CC5
:1031C0000DF5046333F8100012FB001010A941F84C
:1031D0002500681C05B2B5F5007FE2DB207800EE23
:1031E000100AF8EE400AB1EE041AB2EE040A00EE3C
:1031F000810AB0EE408A9FEDD20AC8EE000AB0EE16
:10320000608A9FEDD00A28EE000AB0EE408A18EEE0
:10321000100AFEF7A5FA41EC1C0B9FEDCB0B53EC0B
:10322000102BFEF7BFF841EC1B0BFEF780FA86B2BD
:10323000207800EE100AF8EE400AB1EE041AB2EE61
:10324000040A00EE810AB0EE408A9FEDBD0AC8EE86
:10325000000AB0EE608AB0EE080A28EE000ADFED40
:10326000B90A20EE200AB0EE408A18EE100AFEF7E6
:1032700077FA41EC1C0B9FEDB40B53EC102BFEF7CF
:1032800091F841EC1B0BFEF752FA1FFA80F8701E02
:1032900010A951F8200051F82610014410AA701C02
:1032A00052F82000084400EE100AF8EEC08AA8F197
:1032B000010010A951F8201052F82800014408F12B
:1032C000010052F82000084400EE100AF8EEC09AFF
:1032D00088EEA99A9FED9E0AB4EEC09AF1EE10FA1C
:1032E00002DD0020387001E001203870607800EEC7
:1032F000100AF8EE400AB1EE041AB2EE040A00EE2B
:10330000810AB0EE408A9FED8E0AC8EE000AB0EE48
:10331000608A9FED8C0A28EE000AB0EE408A18EE13
:10332000100AFEF71DFA41EC1C0B9FED870B53ECC6
:10333000102BFEF737F841EC1B0BFEF7F8F986B2BD
:10334000607800EE100AF8EE400AB1EE041AB2EE10
:10335000040A00EE810AB0EE408A9FED790AC8EEB9
:10336000000AB0EE608AB0EE080A28EE000ADFED2F
:10337000750A20EE200AB0EE408A18EE100AFEF719
:10338000EFF941EC1C0B9FED700B53EC102BFEF78B
:1033900009F841EC1B0BFEF7CAF91FFA80F8701E02
:1033A00010A951F8200051F82610014410AB701CF0
:1033B00053F82000084400EE100AB8EEC00AF0EE00
:1033C000408AA8F1010010A951F8200051F82810F6
:1033D000014408F1010053F82000084400EE100AEF
:1033E000B8EEC00AF0EE409A88EEA90AB0EE409A14
:1033F0009FED570AB4EEC09AF1EE10FA02DD0020FC
:10340000787001E001207870207808B9012000E090
:1034100000206178042901D1012100E00021084049
:103420002178012900D100E000216278072A01D12A
:10343000012200E00022114008432178022901D135
:10344000012100E0002162780A2A01D1012200E076
:103450000022114008432178032901D1012100E015
:10346000002162780D2A01D1012200E000221140E2
:1034700008432178042901D1012100E0002162786C
:10348000102A01D1012200E00022114008430F90D0
:103490000F9800287ED0207800EE100AF8EE400A3F
:1034A000B1EE041AB2EE040A00EE810AB0EE408AD0
:1034B0009FED230AC8EE000AB0EE608A9FED210A54
:1034C00028EE000AB0EE408A18EE100AFEF748F91E
:1034D00041EC1C0B9FED1C0B53EC102BFDF762FF16
:1034E00041EC1B0BFEF723F986B2701E10A951F8B0
:1034F000200051F82610014410AB701C53F8200036
:10350000084400EE100AB8EEC00AF0EE408A2078B7
:1035100000EE100AF8EE400AB1EE041AB2EE040A08
:1035200000EE810AB0EE408A9FED050AC8EE000A5F
:10353000B0EE608AB1EE040A0CE00000A85C002046
:103540000000FA4300000044000000000000E03FDB
:103550000000964328EE000A5FED060A20EE200ADE
:10356000B0EE408A18EE100AFEF7FAF841EC1C0B98
:103570001FED0B0B53EC102BFDF714FF41EC1B0B55
:10358000FEF7D5F81FFA80FAAAF1010010A951F848
:10359000200000E01CE051F82A10014410AA0AF1B2
:1035A000010052F82000084400EE100AB8EEC0AA4C
:1035B00088EE8A0AB0EE409A1FED1F0AB4EEC09A58
:1035C000F1EE10FA02DD0020387001E001203870C1
:1035D0000DF5215DBDEC0A8BBDE8F09F10B52DED1A
:1035E000088B002447480078C82210FB02F0464AA6
:1035F00002EB40014548FFF751FDB0EE40AAF0EE66
:1036000060AA40480078C82210FB02F0404A02EB52
:1036100040013E48FFF742FDB0EE40BAF0EE60BA1E
:10362000B0EE4A1AF0EE6A1AB0EE4B0AF0EE6B0AF0
:10363000FFF776FAB0EE408AF0EE608A9FED350B28
:1036400053EC102B51EC180BFEF79EF806D251EC00
:10365000180B81F00041314A03C209E053EC182BEA
:103660009FED2F0B51EC100BFDF73DFF2B4A03C2D2
:1036700024484078C82210FB02F0234A02EB4001A4
:103680002248FFF70BFDB0EE40AAF0EE60AA1D48FD
:103690004078C82210FB02F01D4A02EB40011B4893
:1036A000FFF7FCFCB0EE40BAF0EE60BAB0EE4A1A9A
:1036B000F0EE6A1AB0EE4B0AF0EE6B0AFFF730FA42
:1036C000B0EE409AF0EE609A9FED120B53EC102B87
:1036D00051EC190BFEF758F806D251EC190B81F09A
:1036E0000041114A03C209E053EC192B9FED0C0B6A
:1036F00051EC100BFDF7F7FE0B4A03C2BDEC088B33
:1037000010BD00009003002094030020A85C00205E
:1037100044210020000000000000000060030020A1
:103720004AD8124DFB211940680300202DED0C8B67
:1037300000BFFEF755FAFEF733FFFEF781F94FF4AD
:103740007A70FEF723FA9A48FFF7E8FB9949984800
:10375000FFF7EAFC9649497801EB810101F10A0083
:10376000FDF7A8FF41EC180B53EC182B9FED920BC3
:1037700051EC100BFDF72FFF914A03C28D480078E2
:1037800098B900200EE08A49097801EBC10202EBEA
:10379000011100EBC1018B4A32F811108A4A22F85C
:1037A0001010401CC828EEDB12E000200EE080491B
:1037B000097801EBC10202EB011100EBC101834A60
:1037C00032F81110804A22F81010401CC828EEDB95
:1037D0007848407898B900200EE07549497801EBA7
:1037E000C10202EB011100EBC101764A32F811105F
:1037F000774A22F81010401CC828EEDB12E00020A7
:103800000EE06B49497801EBC10202EB011100EBBC
:10381000C1016E4A32F811106D4A22F81010401C96
:10382000C828EEDBFEF7DEFEFEF77CFAFEF7FAFEB6
:10383000FEF7F4FA6748007801281BD16648006853
:10384000FDF738FF41EC190B5D4890ED000B53EC90
:10385000102B51EC190BFDF74CFE41EC180BFDF74A
:1038600047FF00B25D49496A401A4FF6FF71081AD6
:103870005A4948629BE000205949087000BF5848E7
:1038800000780028FBD04FF47A70FEF77FF9FFF73D
:10389000A5FE5048007800287FD145490878FDF7FB
:1038A0001AFF41EC1D0B9FED4F0B53EC102BFDF756
:1038B00079FD41EC1C0B9FED4D0B53EC102BFDF7EC
:1038C00018FE41EC1A0B4B4890ED000B53EC102BFB
:1038D0009FED490B51EC100BFDF70BFE41EC1B0B60
:1038E00053EC1A2BFDF777FE41EC190B9FED440BBF
:1038F00053EC102BFDF756FD41EC180BFDF7F8FECD
:10390000414908602A494878FDF7E5FE41EC1D0B66
:103910009FED340B53EC102BFDF744FD41EC1C0BD9
:103920009FED320B53EC102BFDF7E3FD41EC1A0B2E
:10393000364890ED000B53EC102B9FED2F0B51EC04
:10394000100BFDF7D6FD41EC1B0B53EC1A2BFDF7CA
:1039500042FE41EC190B9FED2A0B53EC102BFDF7A7
:1039600021FD41EC180BFDF7C3FE294908602948E9
:10397000006825490968081A4FF6FF71081A254999
:1039800008601648406A22490968081A4FF6FF7114
:10399000081A1249486201E0FFE708E01E48007873
:1039A000012803D100201C490870C2E600BF62E76D
:1039B00090030020920300206CED7DAAAA3A924069
:1039C000500300209403002028000020F43E002033
:1039D000B8010020490300205803002000100040D7
:1039E0002600002000000000000000404AD8124DD0
:1039F000FB21094060030020000000000068C04077
:103A0000000000000000E03F880300206803002061
:103A10008C030020240800404803002010B52DED41
:103A20000C8BB0EE408AF0EE608AB0EE419AF0EE78
:103A3000619A53EC192B51EC190BFDF75AFD41EC2F
:103A40001C0B53EC182B51EC180BFDF752FD41ECFD
:103A50001D0B53EC1C2BFDF7A5FC41EC1B0BB0EE32
:103A60004B0AF0EE6B0AFFF75BF9B0EE40AAF0EEFE
:103A700060AAB0EE4A0AF0EE6A0ABDEC0C8B10BDEB
:103A80004FBB610567ACDD3F182D4454FB21E93F76
:103A90009BF681D20B73EF3F182D4454FB21F93F65
:103AA000E2652F227F2B7A3C075C143326A6813CEB
:103AB000BDCBF07A8807703C075C143326A6913C96
:103AC000C4EB98999999C9BF711623FEC671BCBF02
:103AD0006D9A74AFF2B0B3BF9AFDDE522DDEADBF6A
:103AE0002F6C6A2C44B4A2BF0D5555555555D53F82
:103AF000FF8300922449C23F6E204CC5CD45B73F9D
:103B0000513DD0A0660DB13FEB0D76244B7BA93F14
:103B100011DA22E33AAD903F0000000000000000FF
:103B2000403B000800000020A85C00009C19000831
:103B3000645A0008A85C0020D0470000F02E00085E
:103B40001006010000000A041264041019E80300C2
:103B50000010270000A086010040420F00809698C8
:103B60000000E1F505231033005E08BC0819097553
:103B700009D009280A7F0AD30A240B720BBC0B0355
:103B80000C450C840CBE0CF20C220D4D0D730D93E4
:103B90000DAD0DC10DD00DD90DDC0412D00C12AD40
:103BA0001412731C1004220DF22812843010040326
:103BB0000CBC3C1004240BD3481004280AD0541029
:103BC0003A1909BC085E080008A2074407E7068BFB
:103BD000063006D80581052D05DC048E044404FD5D
:103BE00003BB037C0342030E03DE02B3028D026DAE
:103BF0000253023F0230022702240412300C1253F7
:103C000014128D1C1004DE020E28127C301004FDEC
:103C100003443C1004DC042D481004D80530540043
:103C200009C6E7064407A2070008C80015FFBE0C36
:103C3000D00930064203240242033006D009BE0CEC
:103C4000DC0D140179142E0049039101033835006D
:103C5000010DFF6C03018DC81E8DFA041EA2F8042D
:103C60001EA9F6041E97F4041265961E0BF0041E9E
:103C700083EE0412CAB812DBB612B8B41261B212E3
:103C8000D9B0162576164B74165472164770162F37
:103C90006E141215078B060406810504058E042098
:103CA00004BB035F6416C7621660601E2B02041E0D
:103CB0002B00041E60FE031EC7FC03165F86162041
:103CC0009016049A1604A41E15F2031E2F80051EDA
:103CD000477E051E547C051E4B7A051E2578051E61
:103CE000D976051E6174051EB8720516DB3C16CA2E
:103CF0003A1683381A0BA21665FC1697FA16A9F81D
:103D000016A2F6168DF41673F2165EF01657EE161E
:103D100069EC1E9B660416F5E8167DE61636E01E75
:103D20002586041E4884041E9F82041E2780041ECC
:103D3000DB7E041EB57C041EAC7A041EB978041C1C
:103D400016D1075E08EB087509FC097F0AFC0A72A8
:103D50000BE00B450CA1FC051E39FA051EA0F80569
:103D600016D5C216D5C016A0BE1639BC1EA11E0699
:103D70001EE028061EFC32061EFC3C061EEB7E05DD
:103D80001AD1781AB9761AAC741AB5721ADB701A8D
:103D9000276E1A9F6C1A486A1E250C051E360A05E6
:103DA0001E7D08051EF5DC041E9B04051E69020528
:103DB0001E5700051E5EFE041E73FC0412BC841612
:103DC000280816728C128480164D0416C18812D9E8
:103DD0007C16939816F2841404030C72821404283F
:103DE0000A758014040008447E12D872128EF616EA
:103DF0007C7A12B36E1A3FD2162776166D02120E17
:103E0000EE1004FD038EEC1804D8058BBE01FF6490
:103E1000052B2C1806EB08D009A9101E25AE03129D
:103E200039601ACA0812CAC21A39881225C01EA9D6
:103E30001E0712EBBE10061507300657BC1ADB78BA
:103E400012C7BA1A36F812365416C7E812DB521ED9
:103E5000573E0402FF15500140501E1970051624EC
:103E6000F016BEEE3EAD54051E939A041E84B008B3
:103E700012D34A1EBCA0081E8B8A041E8E8604180C
:103E8000040E038D401624DA168DD816BB841681D5
:103E9000D41404A207BCD21C06D30ABC0B8462044F
:103EA0003E939C051AAD901ABE8E1C0A240B280A5C
:103EB00019090008E7DC081ADC861A42843E53C060
:103EC000081E6D36041E7C0C061E2D04061E442A98
:103ED000041E7526041E7222041804F20C73721A52
:103EE000DCD41A73D21245D01A7FCE1A5ECC1C08CD
:103EF00030062D0544047CFE033E6D08091E538CDC
:103F0000041A425C0007C8DC04D805E706C81E474F
:103F1000300512978416398E16DB081E61AA091225
:103F2000E0C416A2061C041507D808051EBB8805A8
:103F30001E6D04061E308C051E0E0C031C04DC04D2
:103F4000044407168D861C04FC0A03E8053E7368CA
:103F50000612A0FE1665401254BA12D1FC16573E46
:103F6000165F801648C21E48C8051E5F8A0716578E
:103F7000C01C04D1071928061004720B65F63EA078
:103F800018061E7398061404030CFC36168D781858
:103F9000040406DC441C040E037DD207122BF0142B
:103FA00006F502BB03B5741E15E00516A2F814064B
:103FB000E00BBE0C61B416DBF61639701697B2161C
:103FC00047F416B96E1669B016C7F21A25341E9F4B
:103FD00000091E20F8071A5E321C04EB0828980618
:103FE0001E4518071E9308061ED01C071AF2BC14A3
:103FF00004240BFCA81673EA1C040405FDE8053E26
:104000008D68061660621A9B6C16AC1E1E2F500639
:104010001AA96A1AA1AC1AB8261AB86816A1E21A27
:10402000A9241A2F6616ACE01A9B223E6018061EC1
:104030008D98061C04FD030466081A73A41C04FC76
:10404000092474041804F20C83A21AD51C14060B5C
:104050000D450C4BD81AEB1A1A5E5C1C0620044264
:10406000039F200516259216C7D41A69DE16B9904B
:104070001A75141203383E936A05124DE212723615
:104080001EBCFA0412D86E167C522DF004166D8AEE
:104090001C04FD032DAC0501FF32055D2C16A2C8E2
:1040A0001A65001ACA3812619414044B0BD0FC1D17
:1040B00030091B05BB6C2D20091A8DDC1D10091D54
:1040C000D2031E47D0031A25D81EB810031E838AB8
:1040D0000B1297C01A8D281A57603AF5981E6DBCBE
:1040E000081A445C1A44941A7FCC1804F20CA058A5
:1040F0001EA0800E1EE0B20316EB1E111C38050434
:1041000027036D181806F502FD0357881A8DC01A8B
:1041100097F816831A1EB868031804250CD3F41EEA
:10412000A22C031E8E64033E8DA0091EC728031E09
:1041300004BC071E2FB0051E4BD0031A61781ECA9F
:10414000C40A1A65E81EA220031E5E5803169B7659
:104150001E36C8031A9F701C04B504308C031D3032
:10416000091F0A45FC032D20091A73DC1D10091DC7
:1041700036041EB934041ADBD816480C1E7DE80834
:104180001E69F4041E73B8031EA9F0033E0B280435
:1041900015A41DBE0B16549E1804150781CC1C04D3
:1041A0000E0360E8031E60780B1E20DE041E15DC83
:1041B00004111C170BD9682DA8031C060B0D030C4A
:1041C000A918041673FC1A69F81E7D50051E48686C
:1041D0000316DB641C04B9065E2C031E7264033EE6
:1041E00073A0091E3928031EFCEE071ED190071A82
:1041F000B5281E9FDA0B1E36D40B1E9B7A05165E61
:104200009012D02C12BE581EDC90081EBE800812E0
:10421000D0DC1630081642341E24A8091E426C0653
:1042200002FF30280568181D44051F0B0B240D1EC6
:10423000CA120D1AE0F0122F9E1A69102D300B1AB7
:10424000C7C01006AC05A207A24C1804D90CAD6477
:104250001A4DBC1E7F1403168BDC1A42341E27D065
:104260000B1ABBE41E443C031A240429301E734875
:10427000061ED328051EE764031A7C2C1E24700B2F
:104280001A7CDC1808E706EB08D30A652829801A8F
:10429000A1D81C06470944075788033E9FB8051E4E
:1042A0004228061E8B2C031E7F84031A4D4C1D963C
:1042B000071DA0081EA228031EAC80033EC7400CA9
:1042C0001E0E68051E30D8051E2848061E22D4037F
:1042D0001EC1900C1ABCF41F0008D4061F04F5443C
:1042E0000E1E36600C1E20E4071C06D107D009976D
:1042F000A0032DC00C1A39C01C04540A5E44031ECE
:104300008E9C031E53F4031AB3BC1E8114031E7546
:104310006C031EBEC4031ED91C041A45E41EBC88CF
:10432000061EDC94032DC0031E8D48061E2DB80604
:104330001E1964031E84BC031EDC940D1A84DC1C4D
:1043400008190915072D059BB8032D10041E5F528F
:10435000081C06B906BC08A988033E6148071EBEB2
:1043600064041E752C031E8184031EB304071DFA0A
:10437000071D34081E5E28031E5470073E39D00DF9
:104380001EF2F8061ED068071ED848061EDE940CE2
:104390001E3F28071E4498071E00EA061203FE1659
:1043A000D92216844616BC6A168E8E1E3F82081EBF
:1043B0000ED606128B6A12D38E2D6405124DD614BA
:1043C00006280A0008D81E3EB3F6041E7C8A051E85
:1043D0004414041272F81EC150081EF2100916751A
:1043E00064162D881DBA041DF60C0005FFFD03D8C8
:1043F0000564052B2C1654D82DB8051A396812A25D
:10440000E81C040405421C031D66061DD0041E158D
:1044100080051A97882D20081E651803122FC43AAC
:10442000DB181AB3841A30CC1C04D30AA138031643
:10443000CA261C064B0B1909B9F0051EF5CE0A1E3B
:104440006030081E5758031804FC0903341EDCDCD6
:104450000F1D400919E81657441E6078031804F52B
:10446000028E541A199C2FF20C780F16A1421E8D41
:10447000980338042004B39812DB9A1E2F80061686
:1044800065401ED5181016978218041507DCDC1E2F
:104490003F640F1E4248061DC8131DD8033E39C88D
:1044A000061A45FC1C040008AC68032DB8051AC7A1
:1044B00068165E1A1C04FC0ABE1C031D120E1D4861
:1044C0000916EB9E1A69882DB0091E9B18031C045F
:1044D000D1072884032DA8031E4D14041AD0CC1C28
:1044E000042D055F38031E36000B1C06B504E706D5
:1044F00047F0051E0B98101EA0300B1EA958031C78
:10450000040406FDC4031E24DC0F1D40091D100613
:1045100016A9761EA078031C040B0D72E4031EE797
:104520002C042F0E03780F1E5F2A081E7398033C7D
:1045300004E00B4D28041625941ED12803169B7207
:104540001E2BE20B1669B41C04EB08246C041EC17C
:1045500078101EBE540A1D50121DD8033EC7C8064F
:104560001EBB8C041E0076071684521EC1E60A1E6E
:10457000D3D20312D8D62DE00B1E0E5E061E44F2D7
:10458000031203B61ED9C80B16726E1D080F153024
:104590001E24BC0A1E4458041E19A4061D421111F3
:1045A000761E03DE1416442E2F0E03580C16BB4C39
:1045B000165EA812BE741EAD900A167F2C16818856
:1045C0002D40151E42E00616A20C1645681ED0743A
:1045D0000A1C04240BBC44051EFDB2071E27660AF4
:1045E000168E0A1DD60E11CC1EDCC00C1EBCF403A8
:1045F00016E7E01DDE1015A21EFDBC1312BCCA2F6B
:10460000F20C200D1245E816A2441642A01E53BC1F
:104610000702C981C812A9722D500E1E25B81414A4
:104620000415078EAC1E24CC081E8E1C031404D067
:104630000925381ECAD21416A9541257FE2D900F00
:104640001EDB52161804EB08729C1EDC000C1A725A
:104650007C14043006DBC41E36A80802FF57500540
:1046600040402C05D30AF20CF0041D0E1519561605
:104670007CAA1E6DC6071A8BAA12039E1EC1020BCE
:104680001004280A44B82D6A051E0EE00601FF3208
:10469000055D2C1C04FC0A2240151EF25C08100467
:1046A000A207B5181E2BE8082C07AC05BC08970B11
:1046B000780F1D50081D36042F2004A0141C04BBC5
:1046C000035E50041E2516041EA0B0081E47821962
:1046D000129B601E7DB0051E15BC031EA14A04126C
:1046E00061DC1E8D9E042F2703C8051808DC04D149
:1046F00007D30A0BA81C040B0DD348053EDC280584
:104700001E27C0051A8D202D400C16A1241C06154D
:104710000744047D500F1E9B92041247A61EA078EA
:104720000F1F250C24111F06BBC8061E6D2C09186F
:1047300006E706FC0984D41E7348061EBC28062F13
:10474000420320091006B504A207A9EE1EDB5E1B7A
:104750001EFC20031C040405DE40151E0EB8061CBA
:10476000045E084BC0051ED508161654822F690436
:10477000780F1DE0091D62052FE00B30161C044563
:104780000CA27C051EDB7A041E600C081EB9C4183E
:104790001E655C051E83A80916EB981E5FAE041EFD
:1047A0009FE006140673077F0AD9B0180A390D2452
:1047B0000B2F082D05F5F81C04F5022DD8063E2414
:1047C000B8061ED9680A1673E02D400C1E5FDC0483
:1047D0001C06EB08BC0B83E8111E65BE051EB984E0
:1047E000051E60600D16DB7A1C04A20945C8061E72
:1047F00093BC0A1C06190904067C24031E8D480676
:104800001C0444075458032DB00A1C044B0B5EDCF7
:10481000031C040E032556181E0498081224BC1EFF
:10482000D0940812D0A416BB601E8D6C0716A24847
:104830002D1C061EBE900612E75C2D88181E4488AB
:1048400005167F001EDC2A15127FE81644A41E53AD
:1048500014081004E706285A2D64061D641111A0DF
:104860002DE41212BB8816D0441ED0200B1406244F
:104870000B0008DCE81E30B0121E3020061245FC8A
:104880001673B8125EE42D1C061E42BC071619886A
:104890002DBC1C16BC7012819C1E2414091A811494
:1048A00016BC401EAD0E0914041909D8862D6406E5
:1048B0001D001115CC2DE4121645B41230E01E3047
:1048C000201903C8DC04C8124BDE1EB800091EEB19
:1048D000AE061EF5080C192015D41684BC1004224F
:1048E0000DA9B02F2004B0171A8EEC1A24D41EC1C3
:1048F000340834041909ACD01DE8081D80071910CC
:104900001D10181AD32C1C044404603C0A1669CEEE
:104910002FFC0AF00F1E4544031ED82C031D021D58
:104920001DE4071247C22D500F16FCB61669CC1EA7
:10493000604E071673F82D900B16655C1E04F01C74
:1049400029E012ACD61625B41A619816D1E02DC014
:10495000181E20940716A95A1ED5F00816A2861212
:104960005FD41804F50281941A037C1A736414044A
:104970000008B5421E48F8071A15D81E0BD4141D9E
:10498000B0031D64031E7C4C031404DE0257142F75
:10499000E00B40191A72EC1ADCD41E3FC4093C0427
:1049A000E7065460031DE80815C41DA0031D6C151F
:1049B0001E2DBC031C04BC0BA0200D1A97322F0423
:1049C00005F00F1EBB44031E282C031DC21A1D3008
:1049D0000916B9EE2D500F1E04B6081A97301EA006
:1049E000980A1A8D5C2D200D169BC01EFC321C2DC2
:1049F00070041A54021ADBE01E9F2804162F7C2D27
:104A0000501A1AE0701657BE1E2BB0121E5E5C1CA8
:104A10001AA1001C040B0D7F24041EFD0C041E8D26
:104A2000F40312002A1E93221B1272D2168E261E27
:104A30006DDA0601FF14057B040DFF7E1D018DC894
:104A40000D62841C0DFF141E0D29141E12D0841E2D
:104A500073C60616BE8C12BC80167F041E19041580
:104A600012A27C1E308A1A1D500D11FE16428212AF
:104A70008D761E30D61A1E300C1A1E8D96051A42DF
:104A80004A1E44FE1D1E81821E1EE7D0191E5E8A2C
:104A90001F1ED0581A1D1E0D1D5A1A1EBE9E1A1E0C
:104AA00073841202FFD064012C640DFF4C1D018D34
:104AB000500DF81A1D0194C80D62841C0DFF141EC0
:104AC0000D29141E12ADE41E4504151DAE0B158EE6
:104AD0001281E21242361E304E0B1E8DF2111E4420
:104AE000D61D1DD8241D941B1E247C061E22440B9B
:104AF00001FF32015D320DFF4C1D0D294C1D0D6271
:104B0000DC1E0DFF2E1D018D280D62841C0DFF146F
:104B10001E0D29141E1E73F014127F481DEE071D72
:104B2000CA1D2D300B1E429C251EE7BE1B1E245A9B
:104B30001E2D140B1E22FA1412D0B21281D61E8D15
:104B4000261B1E8D30141E81FE1B1D2E271D3C1C96
:104B50002DC00C1EBE50081E19281B16DC402DA4AB
:104B60000C1EDEB6131E30481B1E7F7C1C02FF731A
:104B700064012C640DFF4C1D0D294C1D0D62DC1EC3
:104B80000DF81A1D0194C80DFF241D018D501E2221
:104B90006818165EC81DEE331D76111E448E1B1E4E
:104BA000D0D21A1EAD6A0E1E45EA1A1DA8141D6049
:104BB0001B1E3008081E81781B1E24C22001FF32F4
:104BC000015D320DFF4C1D0D294C1D0D62DC1E0DCB
:104BD000FF7E1D018DC80D62841C0DFF141E0D2962
:104BE000141E0DFF203B018D141C3060029C02D866
:104BF00002140350038C03C803040440047C04B86B
:104C000004F40430056C05A805E40520065C06984C
:104C100006D40610074C078807C4841C4C2F3C0898
:104C20007808B408F0082C096809A409E0091C0AEE
:104C3000580A940AD00A0C0B480B840BC00BFC0BCF
:104C4000380C740CB00CEC0C280D640D7030100690
:104C5000640D280DEC141006740C380CFC2412841E
:104C60002C10040C0BD0381006580A1C0AE048100F
:104C70000668092C09F05812786010040008C46C0A
:104C800010064C071007D47C10065C062006E48C46
:104C900010066C053005F49C127CA410040404C8B2
:104CA000B0100650031403D8C04D0C3001C4C81610
:104CB0007E8E16328C1406E60340049A88124EFA51
:104CC00016028416B682166A80161E7E16D27C16CE
:104CD000867A163A781006EE0A480BA2AC16565E93
:104CE000120AA816BE6E16466C16926A16DE681672
:104CF0002A6616766416C26214060E09B4085A5E55
:104D000016A6CC16F25A163E58168A5616D65416C1
:104D10002252166E502EBAC61019141806F60250FA
:104D200003AA10165E721A120C1AC60A1A7A081A08
:104D30002E061806E2073C0896021A4A001406FEE0
:104D400009580AB2341666D6161A3016CE2E1E82AE
:104D50007C2E1682F216CEF010041A0CC01C180419
:104D60000C0BB22616FEE8164AE61A964416E2E244
:104D7000162EE0167ADE16C6DC10041205B86C1882
:104D8000040404AA8A16F6D41E4206171ABA981A00
:104D90006E961A22941AD6921A8A901A3E8E1C0681
:104DA000F2064C07A60E1F1A5A301A0E861AC28433
:104DB0001A7682162AB816DEB61692B42E46561207
:104DC000197818060A0DB00C567416A2D61AEE7091
:104DD0001A3A6E1A866C1AD26A1A1E681A6A661A0B
:104DE000B66418060206A8054E601E9A02031AE66B
:104DF0005C1A325A1E7ED80E129C84168C08167CC1
:104E00008C126C80165C04164C881A3CAC122CD0A8
:104E1000121C54120C781004FC0B74761E643610AD
:104E200016647E1274721284F616947A12A46E12AC
:104E3000B4F216C47616D4CA16E44E16F4721404EC
:104E400004048C7002FF9C64052C2C1ABA98180478
:104E5000E6037C941AA80C1C04D4066A3C3C129607
:104E60005E1AC2881804EE0A848416B0FC1EDC04A4
:104E7000031AB07C1684F41A58FC1C042C0996E022
:104E80001F166A1C163EE8140412057CE41A50EC46
:104E900001FF50053F401C04D8028CAA041804F4FA
:104EA00004A8521610EC12784C1C04E009949604E5
:104EB0001804FC0BB0481AA0461238E81AD0421A5F
:104EC0006840180600084C0798A01230E41AC89CE5
:104ED0002DB8051A50341AB8961220901A882E1C34
:104EE00004F008A456041E0C28061E744E041EDC92
:104EF0004A041E74460418040C0B58201AF082163B
:104F000088281C0420066C32041804040450161A65
:104F1000607812C8D41A30741E981C041E0048060B
:104F20001A686E12D0D01A386A2DB8051AB0CA1A8B
:104F3000486416E06C1E7828031C0410075CF2031A
:104F40001EF4EE031E8CEA0301C8C81C06F602C854
:104F5000039AE203163E8E1C06E207B40886A005FB
:104F6000162A8C16CE061646481EA2AE0616FE045B
:104F7000165A4612B6C01006120540046E7C1E7EFC
:104F8000F0051622C812C67A1E6AE005160EC61271
:104F9000B27816568212BEFC14061A0C480B7680A4
:104FA0001ED27A3F162E3C1E8AB00512E6F81A422F
:104FB0000212AAB4124EF61006F206C40796B212F6
:104FC0003AF416DEFE1E8200081E92000616EE342B
:104FD000164A7616A6B81406020630055E742D68C9
:104FE000061632F81AD63A1E7AD005161E2E1AC2A6
:104FF000381E663E081E0AD80E14060A0D380C66C6
:10500000B016C2F2161E6C167AAE16D6F01A3232EE
:105010001ABA741E5EDA071602681AA672164A24B5
:105020001406EE0AC00B92A81682EA1ADE2C163A73
:10503000A61E9680071AF22A164EA41EAAD005169E
:1050400042601C06E603B8048AFE041E2E80201669
:10505000D2A01E764007161A5C1ABE661656E01AD3
:10506000B2221C040E093C8C031E9898061EF418EC
:10507000071C0450037E5C081E6E900716129816DB
:10508000B6DA1A5AE41C06FE09D00AA22C052D68CD
:10509000061ACE5C1A2A9E1E8660071AE25A1A3E2B
:1050A0009C1E9ADA071EF6E4251214E41406F40492
:1050B000E405D41C12B4701694541274A816648CAF
:1050C0001284E012A4341EC4200812E46C0005FF10
:1050D0000404140332055D2C1E3258091E4EFE06D0
:1050E0001A6A381286301AA2A829E01EDE180312A6
:1050F000C2C416A6F81A8A301A6E681C04F6020496
:10510000FC081E20F4081E3CEC081A589C1A74D4A3
:105110001C08280D1A0C0C0BFEE60912E2F01EC644
:1051200008031EAA40031EBA780312D68A1EF2CACA
:10513000211E0E4C0A1E2A060B16461E1E5638034A
:105140001C0C3A0A2C091E0810070206F45C082DF4
:1051500058081E8CA4031AA84C1C0CC407D208E0E3
:1051600009EE0AFC0B0A960E16924A1A76B81A5ADB
:10517000F01E3E28031222B21E4288091E5EB207AC
:105180001A7A781296E21AB2E81ECED80E1ECE58BF
:105190000316B2761E96C8031A7A701A5EA829E022
:1051A0001E22F20A1E3E20091E5A880316760E1E83
:1051B00092F8031C040A0DFCFC081EE0F4081EC44F
:1051C000F4031AA89C1A8CD41C08D802E603F40431
:1051D00002120B1E1E040B1E3A480A16569E1E464D
:1051E00078031C062A0B1C0A0E104016F2CE1AD6A3
:1051F000C81EBA5C0B1EAA380316C6681C08E20754
:10520000F008FE090CEC092DE8091E74A4031E58D1
:10521000DC031E3C14041C08200612050404F6528C
:10522000171E6E10041E8A480416A6941EC2280378
:105230002FDE0B60031EB07C041E9424031E785CDA
:10524000031E5C94031E40CC031E24660A167C0ACF
:105250001ED406221E2C4A0A16848E12DC2A1284C0
:10526000561E2CB02212D4AE127CDA01FF2805673C
:10527000181E6E20051E02600B1A96981E2A0C0A34
:1052800025B81A66101AD2681A3EC01EAACA301271
:10529000324C1804C60510641AA4BC1E38E8051662
:1052A000ECDC1A58341AC48C1C043005E6100318C0
:1052B00004F60240041804D4061E881AB2E01E4602
:1052C000020E1ADE001E4A28231AB6B01C0422045D
:1052D000D8E00B1E04E00C1A98541A2CAC1EC00423
:1052E000031E645C031AD0241A3C7C1AA8D41A1436
:1052F000A81C04C80312AE0A1AA678123AB82DC820
:10530000061E5680031AC24818042E07E4CC29F85A
:105310001E8C7C031E20D4031AB49C1A48F41EDC95
:105320004C031E48A4031AB46C18042006D6F02DB2
:1053300048031E9A8E041E2EF8031AC2C01E56A6DB
:105340001A16CE781C043A0AF0F4031A5CBC1EC884
:10535000E8051E146C031EA8C4031E3C1C041C0498
:10536000D00A1A10031C040A0DC094031C042C0953
:10537000E218041A4EE01EBAA00D1E22420B1EB601
:1053800042401E4A40041C04DE0B28700D1EFC8C9B
:10539000031E68E4031ED43C041E4004031E9C5CF0
:1053A000031E30B4031C04C4070E200D1EA200030C
:1053B0001E82D0061EEEB0031E5A08041AC60C2D1B
:1053C000C8061EAA80031E3ED8031C04D2081C5C1B
:1053D000042D88041E747C031EE0D4031E4C2C0490
:1053E0001EB884041224DA1C04F4045C5807122C3E
:1053F0006C2FFC0B300B16848E1EB4460912E4464B
:105400002DDC0B1E04D00B12D4B212A4D61274FAE7
:1054100016741E16A44216D4662F0404F80B1E7CC4
:1054200086051E4C0C08161C402D780B16FC8816A1
:105430002CAC165CD002FF8C64052C2C16AAD8125A
:10544000B6421AC26812CEE81EDECE0912D2C616C5
:10545000C6F82DB00E1A9A8812A6821EB21803251D
:10546000D01EEEF60A16E2063ED648081E047C0858
:105470001E1024091E1C3C081E289C0E1A84A41A07
:1054800078EC1E6C34032D38051C04F4047A2823B0
:1054900012869E2DB8051C041A0C9454031A880C0D
:1054A0001A7C541C04D8025E4E071E6A80051276D0
:1054B000DE2DE808162A2018041E0898BC29E01CD6
:1054C00004C8034E6C071E5A50061666821A46B868
:1054D000163A601C042E07A86C031E9C54101AB8C0
:1054E0006C1C04C4074AB8081E56F8111E566803FF
:1054F000164AA01A3E681E32220E1E22FA0A1E2EDC
:10550000300A1E3A48092D40101A6688165A7C1E29
:105510004E18032D60031E125A0B1E1E980B3E2AB6
:10552000D8091EFC0C0A1EF0100C1EE4CC091ED873
:10553000740A1E7C34041A88EC1E9434032DC806A9
:105540001C040C0B86E803167AFC2D48071C04E6A5
:10555000036C54031E789C031E84E4031404280D7A
:10556000A2FA1E960803168AD82D780A16D6B61CFB
:1055700004E2076808072D70041804380CB23A1EBC
:10558000A6B803169AB41EBA480416C6921C04D2D2
:10559000085848061E6454101E48FC031E3C440470
:1055A00014043005AA9012C85C1E10E80A1658149C
:1055B00016A07012D03C1288981240F41650501663
:1055C00098AC12E0782D8012164830100400085C68
:1055D000F22D3812167CAA12C4763E0CA80C12C00A
:1055E000941278F016304C1660A812A8741404F0C7
:1055F0000894C612DC921294EE164C4A1E04B43380
:105600001A8C0212D4CE1E1C720A2D580C14040CD3
:105610000B68481620A42D48131AB8E61E00C00CCB
:105620001648841628E012E0AC1698082DA80C1E27
:10563000400E091A881C12D0E816A0441658A0146F
:105640000410076C6201C8C81804E603A8A41E2C45
:10565000D4082DE80E1684AC140400083E1C2DC896
:105660000E1E120C0A1696C8161A5418041A0C5854
:10567000041AD4BC2D480E1E7C08051E00000C1A0E
:10568000847C1EB0340318042C096AB802FFE6506B
:105690000140501E04820B1404C407A45A2D140B9D
:1056A0001E940E051AD48E1E1472141806F404D417
:1056B00006B41A2D300B1E8406051AC46E03FF04AF
:1056C0000432055D2C1E22A8081E1EF0072D280599
:1056D00012A2AE16A6A82D400C1E9AAA041296304D
:1056E0001E9236171C0A2A0B2C092E073005326031
:1056F0000F1E1268091E0E700B2DC81412B2C41EA4
:10570000B618082D000F1E8A82031286782D5808BD
:1057100018043A0A3C241C04400442B00C1E022423
:10572000451C06FE09FC0BBEB80816C20C3EC6D8C6
:10573000081E7C58061E7838062DB00E1C08480B33
:105740004A094C074E78031C0CF602F404F206F0EA
:1057500008EE0AECB8151ED0E4091ED42C091ED898
:10576000C00B1E6C68061E6848062DC00C1C045831
:105770000A5A6C041E5E32041C0CE603E405E207C0
:10578000E009DE0BDCCC091EE014093EE4B8061E7D
:105790005EDA071E5AA0052D400C1E660E051E6A15
:1057A000D4041E6ED21616D6041C06D208D00ACE19
:1057B000600F1EEE68091EF2000D2D58161E4EC613
:1057C000071E4AA8092D90101E7676051A7AE02D3C
:1057D000E80916C64C1004C209C0BC1EFC1807100C
:1057E000060008020604D41E4024091E3CFC092DB4
:1057F000680A1E8458061E8838062D40101404B806
:1058000004B6621EB228031C0C0A0D0C0B0E091004
:1058100007120514B8151E30E4091E2CBC0A1E28F8
:105820007C101E9424031E9848062DC00C1404A856
:1058300005A6AA1EA25E05140A1A0C1C0A1E082040
:105840000622901E4096081678782DE81716D0602C
:1058500012988C2D00061E20040A16583012285C5F
:1058600016F01812B84416C8001E00AC091E38C63F
:105870000E1648A41C041007F4C60A128C5A16C44B
:10588000162D80061284FE164CBA2D8818166CA2AE
:1058900012A4CE16DC8A12A4B61E6CAA031E14161D
:1058A0000A1E4CEA061E84343916FC4216C4FE2D2C
:1058B000B8111C04F40410040B16487012389C1420
:1058C000040008E4B6129CE216D49E120CCA1674A8
:1058D00086123CB22D80061A7C2A16B4562D8818E2
:1058E00016943E165CFA01C8C8125E1612D22C2D10
:1058F000880E16FE201E8AE0041E3240081AA67882
:105900002D900B122AC612B6DC2918127A402FEEFF
:105910000AB81114041C0AE24A2DC018124EAE1621
:10592000C28C1282DA14040E09D4FC1E60B00B1E65
:105930005C5C031404D00A0A481E3ABA4512C6AC8D
:105940001C04F602304C091AA4CC1AA0B414042C7E
:1059500009F21A2DA0091E3EA80816B25C16927212
:10596000161E882D38121E12760A3A86981E843C1E
:105970000318041007D60C1C04E603206C091A94C3
:10598000DC1AB0C41A3CAC2D280F1C04F4042EC839
:105990000816A2F41AA20A162E582D18101E02502C
:1059A0000C16769A16CEB01A5A782D200D16D62AD5
:1059B000164A402DA8031A86342F120548131C04DA
:1059C000E4051EE8082DC01816B2DA163E28167E29
:1059D0003E1C04F2062CD4091EA074031EA45C0312
:1059E0001C043005F6F00C1EC61027163AD8180411
:1059F0000A0DD0E41A5CCC1E6044041C04D4060ECC
:105A0000000D2DA0091AC272164EC01A6E9E1C04FB
:105A1000E2071C9C031804280DEE183E7A28041E89
:105A20007C3C031804F0082A701C041A0CE084045F
:105A30001E6C6C041E5054042C05C407FE09B810DB
:105A400018040C0BD242165E901E7C5E05122CA828
:105A500012DCFC162C5002FF7C14017C142D4B59D7
:045A60000000000042
:04000005080001A14D
:00000001FF
