:020000040800F2
:1000000090C40020A1010008D1230008C9230008E2
:10001000CD2300081F1D00082B2C00080000000045
:100020000000000000000000000000000D26000895
:10003000F122000800000000A12400086528000843
:10004000BB010008BB010008BB010008BB010008A0
:10005000BB010008BB010008BB010008BB01000890
:10006000BB010008BB010008BB010008BB01000880
:10007000BB010008BB010008BB010008BB01000870
:10008000E11F000809200008BB010008BB010008AF
:10009000BB010008BB010008BB010008BB01000850
:1000A000BB010008BB010008BB010008BB01000840
:1000B000BB010008BB010008BB010008BB01000830
:1000C000BB010008BB010008BB010008BB01000820
:1000D000BB010008BB010008592A0008BB01000849
:1000E000BB010008BB010008BB010008BB01000800
:1000F000BB010008BB010008BB010008BB010008F0
:10010000BB010008BB010008BB010008BB010008DF
:10011000BB010008BB010008BB010008BB010008CF
:1001200031200008BB010008BB010008BB0100082A
:10013000BB010008BB010008BB010008BB010008AF
:10014000BB010008BB010008BB010008BB0100089F
:10015000BB010008BB010008BB010008BB0100088F
:10016000BB010008BB010008BB010008BB0100087F
:10017000BB010008BB010008BB010008BB0100086F
:10018000BB010008BB010008DFF810D001F0F4FB50
:1001900000480047453B0008AFF3008090C40020B2
:1001A0000648804706480047FEE7FEE7FEE7FEE711
:1001B000FEE7FEE7FEE7FEE7FEE7FEE76928000848
:1001C000890100082DE9F04F4FF0000C4FF00003BB
:1001D00001EB9C5EBEF90250BEF900400EF5806E48
:1001E000BEF90290BEF900800EF5806EBEF9027075
:1001F000BEF900600EF5806EBEF902B0BEF900A037
:100200000EF5806ED044D944A8EB4A0AA9EB4B0BFB
:100210004FEAA4044FEAA50504EBA60405EBA705E5
:10022000A4EB6606A5EB670704EBA80405EBA9059C
:10023000A4EB6808A5EB690906EBAB06A7EBAA07D8
:10024000A6EB6B0B07EB6A0A458020F8044B47804E
:1002500020F8046BA0F8029020F8048BA0F802A00C
:1002600020F804BB03F1010393FAA3FCB3F5807FEC
:10027000AED1A0EB82014FF0100312090FF234103F
:1002800000F1000006B403EB430C6144A2F5803298
:1002900002EB8332B1F90250B1F90040A1EB030146
:1002A000B0F902B0B0F900A000F10400A5EB040E13
:1002B0000EFB0BFC0AEB4B0E05FB0ACB04FB0ECA34
:1002C000B1F90250B1F90040A1EB0301B0F902907D
:1002D000B0F9008000F10400A5EB040E0EFB09FC50
:1002E00008EB490E05FB08C904FB0EC8B1F9025022
:1002F000B1F90040A1EB0301B0F90270B0F9006060
:1003000000F10400A5EB040E0EFB07FC06EB470E04
:1003100005FB06C704FB0EC6B1F90250B1F9004057
:1003200001F10001D044D944A8EB4A0AA9EB4B0BD8
:100330004FEAA4044FEAA50504EB264405EB274544
:10034000A4EBE636A5EBE73704EB284405EB29459B
:10035000A4EBE838A5EBE93906EB2B46A7EB2A47D7
:10036000A6EBEB3B07EBEA3A4D800C8019444F803B
:100370000E801944A1F80290A1F800801944A1F858
:1003800002A021F804BBB2F5803283DA03EB430C00
:100390006144A2F101025FEA024E18BFA0EB0C001B
:1003A0007FF476AF06BC4FEA830392087FF46AAF0E
:1003B000BDE8F08F00400000004000000040000059
:1003C0005DDD213BA3227E180000412D7EA5412D3D
:1003D0000000412D00C000405DDD82E75DDD213B76
:1003E0007EA5412D004000000040000000400000BC
:1003F000AA2A94126B39460649327C0CA8118E2326
:1004000049327C0CA3227E1821F77931AA2A941252
:10041000A8118E235DDD213BA3227E180000412D13
:1004200095C6B13F461A2B1E58EE3735BEB4C53EB1
:10043000A8118E235DDD213B63A97138DF089A285E
:10044000B7CDC53E7EA5412D0000412D00C0004026
:1004500063A92B1E21F77931BEB4C53EBEB47C0C16
:1004600058EE373561AC213B95C6BAF9BAE571381B
:100470003BA737355DDD82E75DDD213B7EA5412D64
:1004800021F766D756D53F3D3BA78E23A811C9CA91
:10049000B7CDC53E61AC7E18AA2AC1C295C6B13F90
:1004A000BEB47C0C00400000004000000040000092
:1004B0001E3BB504693E9201C83C2403EB35640938
:1004C000C83C24036B3946066C30060E1E3BB5044F
:1004D000EB356409AA2A94126B39460649327C0C22
:1004E000AE240917AF37D607882E8D0F7E1E5D1BF1
:1004F000EB356409AA2A941224188C1F1E34F10AC1
:10050000B3269015A8118E2349327C0CA3227E18A5
:10051000140B60276C30060E7E1E5D1B7104FB2AD7
:10052000882E8D0F461A2B1EC7FD5A2E9D2C121198
:10053000FE15E72021F77931AA2A9412A8118E23FB
:1005400087F05334B2281314480D202602EAE5360A
:10055000B3269015DF089A289CE32B39AE2409179F
:100560007104FB2A5DDD213BA3227E180000412D92
:100570004ED7C53C9320EF198FFB6C2F78D1153ED9
:100580007E1E5D1B21F77931E2CB0F3F641CC61C38
:10059000B8F2683395C6B13F461A2B1E58EE373570
:1005A00097C1FB3F24188C1F02EAE536F0BCEC3FF4
:1005B000FE15E720BAE57138A6B8853FD5133D2270
:1005C00082E1DB39BEB4C53EA8118E235DDD213B3F
:1005D00040B1AF3D790FDA244DD9423C2EAE423CBA
:1005E000480D202656D53F3D8EAB823A140B60272E
:1005F00078D1153E63A97138DF089A28B7CDC53E7A
:10060000B1A71236A906CE2915CA4F3F78A668337E
:100610007104FB2A95C6B13FBCA576303902212C66
:1006200038C3EC3F7EA5412D0000412D00C00040A5
:10063000BCA5CE29C7FD5A2EF0BCEC3F78A62026DB
:100640008FFB6C2F09BAB13FB1A73D2257F9763025
:100650004DB74F3F63A92B1E21F77931BEB4C53E7C
:100660008EABEF19ECF474325EB2153E2EAE9015DF
:10067000B8F268332DB03F3D40B1121187F05334CA
:100680002EAE423CBEB47C0C58EE373561AC213BFB
:10069000A6B8D6072BEC1236C8AADB39F0BC240367
:1006A00002EAE53663A9713897C16EFEDCE7B03720
:1006B00034A8E53695C6BAF9BAE571383BA737359F
:1006C000E2CB0FF59CE32B3978A6683378D173F031
:1006D00082E1DB39EDA579314ED7EDEB6DDF823A62
:1006E00099A56C2F5DDD82E75DDD213B7EA5412D67
:1006F0009CE33AE352DBB63B99A5FB2A02EA19DFF9
:100700004DD9423CEDA59A2887F026DB4ED7C53C53
:1007100078A6202621F766D756D53F3D3BA78E23E6
:10072000C7FDDFD363D3AF3D34A8E720710494D075
:1007300078D1153E63A92B1E140B8CCD94CF723E3D
:10074000C8AA5D1BA811C9CAB7CDC53E61AC7E1849
:10075000241850C8E2CB0F3F2EAE90157E1E25C642
:1007600015CA4F3F2DB09412AE244AC451C8853FDC
:100770005EB28D0FAA2AC1C295C6B13FBEB47C0C31
:100780006C308EC1E2C4D43F4DB76409EB35B1C0C3
:1007900038C3EC3F09BA46061E3B2CC097C1FB3F4D
:1007A000F0BC2403004000000040000000400000B6
:1007B000D03E2E019B3F6500363FC9009A3D5B024B
:1007C000363FC900693E92015F3C8803D03E2E014E
:1007D0009A3D5B021E3BB504693E9201C83C24036E
:1007E000D939E205023EF701F43BED038E380E07DE
:1007F0009A3D5B021E3BB5043F373908313DC002CC
:10080000463A7E05EB356409C83C24036B3946063D
:1008100092348E0A5F3C88038E380E073433B70B50
:10082000F43BED03AF37D607D231DF0C8A3B5104DE
:10083000CE369D086C30060E1E3BB504EB356409C0
:10084000022F2B0FB23A1A0505352B0A932D5010A3
:10085000463A7E051E34F10A212C7311D939E2057E
:100860003433B70BAA2A94126B39460649327C0CF2
:100870003129B413FD38AA065B31410DB327D214D8
:100880008E380E076C30060E3226EE151F387207B2
:100890007B2FCA0EAE240917AF37D607882E8D0FCF
:1008A000262321183F373908932D50109C213719E2
:1008B000CE369D089D2C12110E204B1A5D36010973
:1008C000A42BD3117E1E5D1BEB356409AA2A94125A
:1008D000EB1C6C1C7835C709AF295413561B791DC6
:1008E00005352B0AB2281314BE19841E92348E0AC1
:1008F000B327D21424188C1F1E34F10AB326901586
:1009000088169120A933540BB1254C16EA14932173
:100910003433B70BAE2409174A139222BF321A0C94
:10092000A923C417A8118E2349327C0CA3227E1858
:1009300005108824D231DF0C9C213719610E7E25E9
:100940005B31410D9320EF19BB0C7126E430A40DEF
:10095000891FA71A140B60276C30060E7E1E5D1BC4
:100960006D094C28F42F680E721D121CC40735291E
:100970007B2FCA0E641CC61C1B061A2A022F2B0FC3
:10098000561B791D7104FB2A882E8D0F461A2B1ECB
:10099000C702D82B0E2EEE0F3519DC1E1C01B22C0F
:1009A000932D501024188C1F72FF882D182DB11014
:1009B00011173A20C7FD5A2E9D2C1211FE15E72063
:1009C0001DFC282F212C7311EA14932173FAF22FA6
:1009D000A42BD311D5133D22CAF8B830282B3412DA
:1009E000BF12E72221F77931AA2A9412A8118E2387
:1009F00079F536322D2AF41291103524D2F3EF32E4
:100A0000AF295413790FDA242CF2A3333129B4130C
:100A1000610E7E2587F05334B2281314480D20262A
:100A2000E3EEFF34332873142E0CC12641EDA535B7
:100A3000B327D214140B6027A1EB483633273115A6
:100A4000FA09FE2702EAE536B3269015DF089A2850
:100A500065E87E373226EE15C4073529CBE6123815
:100A6000B1254C16A906CE2932E5A1382F25AB16A3
:100A70008D05652A9CE32B39AE2409177104FB2AE6
:100A800008E2B0392B24661755038F2B77E0303AF4
:100A9000A923C4173902212CE9DEAB3A26232118F9
:100AA0001C01B22C5DDD213BA3227E180000412DEC
:100AB000D5DB923B1F22DB18E4FECF2D4FDAFD3B46
:100AC0009C213719C7FD5A2ECDD8643C17219319A4
:100AD000ABFCE42E4ED7C53C9320EF198FFB6C2F57
:100AE000D3D5213D0E204B1A73FAF22F5CD4783DFA
:100AF000891FA71A57F97630E8D2C93D041F021B97
:100B00003CF8F93078D1153E7E1E5D1B21F7793116
:100B10000CD05C3EF81DB81B06F6F831A5CE9D3E04
:100B2000721D121CECF4743241CDD83EEB1C6C1CCF
:100B3000D2F3EF32E2CB0F3F641CC61CB8F268332D
:100B400088CA403FDD1B201D9FF1DF3332C96B3F58
:100B5000561B791D87F05334E1C7913FCE1AD31D40
:100B60006FEFC63495C6B13F461A2B1E58EE373587
:100B70004EC5CC3FBE19841E41EDA5350CC4E13FE6
:100B80003519DC1E2BEC1236CFC2F13FAD18341FE5
:100B900016EB7D3697C1FB3F24188C1F02EAE53621
:100BA00065C000409B17E31FEFE84B3738BFFF3F9E
:100BB00011173A20DCE7B03711BEF83F88169120B4
:100BC000CBE61238F0BCEC3FFE15E720BAE57138F1
:100BD000D4BBDB3F74153D21AAE4CF38BFBAC43F74
:100BE000EA1493219CE32B39AFB9A73F5F14E821A6
:100BF0008EE28439A6B8853FD5133D2282E1DB39E8
:100C0000A2B75D3F4A13922277E0303AA5B6303F53
:100C1000BF12E7226DDF823AAFB5FD3E34123B23AF
:100C200064DED33ABEB4C53EA8118E235DDD213B00
:100C3000D5B3883E1D11E22357DC6D3BF2B2453E31
:100C40009110352452DBB63B15B2FC3D05108824CB
:100C50004FDAFD3B40B1AF3D790FDA244DD9423C2C
:100C600071B05B3DED0E2C254DD8853CA9AF033D01
:100C7000610E7E254ED7C53CE8AEA53CD40DCF25F0
:100C800051D6033D2EAE423C480D202656D53F3D61
:100C90007BADDA3BBB0C71265CD4783DD0AC6D3BB0
:100CA0002E0CC12663D3AF3D2BACFA3AA10B112712
:100CB0006DD2E33D8EAB823A140B602778D1153E9E
:100CC000F8AA063A870AAF2785D0453E6AAA843932
:100CD000FA09FE2794CF723EE3A9FD386D094C282E
:100CE000A5CE9D3E63A97138DF089A28B7CDC53ED1
:100CF000EBA8E1375208E728CCCCEB3E7BA84B377A
:100D0000C4073529E2CB0F3F12A8B1363607812937
:100D1000FBCA303FB1A71236A906CE2915CA4F3FEC
:100D200057A76E351B061A2A32C96B3F05A7C63472
:100D30008D05652A51C8853FBBA61934FF04B02A2A
:100D400072C79C3F78A668337104FB2A95C6B13FF1
:100D50003EA6B232E303452BBAC5C43F0BA6F83119
:100D600055038F2BE2C4D43FE0A53931C702D82BFD
:100D70000CC4E13FBCA576303902212C38C3EC3FCE
:100D8000A1A5AF2FAA016A2C66C2F53F8DA5E42E5E
:100D90001C01B22C97C1FB3F81A5152E8E00FA2CA9
:100DA000CAC0FF3F7EA5412D0000412D00C000407C
:100DB00081A56A2C72FF882D38BFFF3F8DA58F2B30
:100DC000E4FECF2D73BEFB3FA1A5B02A56FE152E23
:100DD000B0BDF53FBCA5CE29C7FD5A2EF0BCEC3FF7
:100DE000E0A5E72839FD9F2E32BCE13F0BA6FE2788
:100DF000ABFCE42E77BBD43F3EA611271DFC282F69
:100E0000BFBAC43F78A620268FFB6C2F09BAB13F2A
:100E1000BBA62C2501FBAF2F56B99C3F05A7352457
:100E200073FAF22FA6B8853F57A73B23E5F9343074
:100E3000F8B76B3FB1A73D2257F976304DB74F3F1A
:100E400012A83D21CAF8B830A5B6303F7BA83A2099
:100E50003CF8F93000B60F3FEBA8341FAEF739313C
:100E60005EB5EB3E63A92B1E21F77931BEB4C53EBA
:100E7000E3A9201D93F6B93122B49D3E6AAA121C43
:100E800006F6F83188B3723EF8AA021B79F53632BD
:100E9000F2B2453E8EABEF19ECF474325EB2153E01
:100EA0002BACDB185FF4B232CDB1E33DD0ACC4174C
:100EB000D2F3EF3240B1AF3D7BADAB1645F32C33EF
:100EC000B5B0783D2EAE9015B8F268332DB03F3DE9
:100ED000E8AE73142CF2A333A9AF033DA9AF5413AA
:100EE0009FF1DF3328AFC53C71B0341213F11934D0
:100EF000A9AE853C40B1121187F053342EAE423C6E
:100F000015B2EE0FFBEF8D34B6ADFD3BF2B2CA0E5B
:100F10006FEFC63441ADB63BD5B3A40DE3EEFF345D
:100F2000D0AC6D3BBEB47C0C58EE373561AC213B88
:100F3000AFB5540BCCED6E35F6ABD33AA5B62B0A54
:100F400041EDA5358EAB823AA2B70109B6ECDC358E
:100F500029AB303AA6B8D6072BEC1236C8AADB3933
:100F6000AFB9AA06A1EB48366AAA8439BFBA7E0592
:100F700016EB7D360FAA2B39D4BB51048CEAB1365F
:100F8000B7A9CF38F0BC240302EAE53663A971386B
:100F900011BEF70178E9183712A9123838BFC90015
:100FA000EFE84B37C5A8B03765C09BFF65E87E37D3
:100FB0007BA84B3797C16EFEDCE7B03734A8E53627
:100FC000CFC240FD53E7E137F1A77D360CC413FCD7
:100FD000CBE61238B1A712364EC5E6FA42E64238E1
:100FE00074A7A53595C6BAF9BAE571383BA7373568
:100FF000E1C78EF832E5A13805A7C63432C963F7D8
:10100000AAE4CF38D3A6533488CA39F623E4FD388E
:10101000A4A6DF33E2CB0FF59CE32B3978A6683327
:1010200041CDE6F315E3583950A6EF32A5CEBFF215
:101030008EE284392CA674320CD098F108E2B039D3
:101040000BA6F83178D173F082E1DB39EDA5793167
:10105000E8D24FEFFCE0063AD3A5F9305CD42DEE90
:1010600077E0303ABCA57630D3D50CEDF2DF593AB3
:10107000A9A5F22F4ED7EDEB6DDF823A99A56C2F23
:10108000CDD8CFEAE9DEAB3A8DA5E42E4FDAB4E94C
:1010900064DED33A85A55A2ED5DB9AE8E1DDFA3A2B
:1010A0007FA5CF2D5DDD82E75DDD213B7EA5412D56
:1010B000E9DE6DE6DADC473B7FA5B22C77E059E547
:1010C00057DC6D3B85A5212C08E248E4D5DB923B3B
:1010D0008DA58F2B9CE33AE352DBB63B99A5FB2A07
:1010E00032E52DE2D1DADA3BA9A5652ACBE624E187
:1010F0004FDAFD3BBCA5CE2965E81DE0CED9203CEA
:10110000D3A5352902EA19DF4DD9423CEDA59A282D
:10111000A1EB18DECDD8643C0BA6FE2741ED19DD0E
:101120004DD8853C2CA66027E3EE1EDCCDD7A53C30
:1011300050A6C12687F026DB4ED7C53C78A62026D0
:101140002CF231DACFD6E43CA4A67E25D2F33FD9E7
:1011500051D6033DD3A6DA2479F551D8D3D5213D14
:1011600005A7352421F766D756D53F3D3BA78E23EB
:10117000CAF87FD6D8D45B3D74A7E72273FA9BD513
:101180005CD4783DB1A73D221DFCBBD4DFD3933D99
:10119000F1A79321C7FDDFD363D3AF3D34A8E72088
:1011A00072FF06D3E8D2C93D7BA83A201C0131D298
:1011B0006DD2E33DC5A88C1FC70261D1F2D1FC3DC1
:1011C00012A9DC1E710494D078D1153E63A92B1EA0
:1011D0001B06CCCFFED02D3EB7A9791DC40707CF83
:1011E00085D0453E0FAAC61C6D0947CE0CD05C3E8B
:1011F0006AAA121C140B8CCD94CF723EC8AA5D1B38
:10120000BB0CD4CC1CCF883E29ABA71A610E21CCD5
:10121000A5CE9D3E8EABEF19051073CB2ECEB13E01
:10122000F6AB3719A811C9CAB7CDC53E61AC7E1857
:101230004A1324CA41CDD83ED0ACC417EA1483C99E
:10124000CCCCEB3E41AD09178816E8C857CCFD3E23
:10125000B6AD4C16241850C8E2CB0F3F2EAE9015F9
:10126000BE19BEC76ECB203FA9AED214561B31C7E4
:10127000FBCA303F28AF1314EB1CA8C688CA403FF6
:10128000A9AF54137E1E25C615CA4F3F2DB0941228
:101290000E20A7C5A3C95D3FB5B0D3119C212DC5B4
:1012A00032C96B3F40B112112623B9C4C1C8783F7F
:1012B000CDB15010AE244AC451C8853F5EB28D0FE7
:1012C0003226E0C3E1C7913FF2B2CA0EB3277BC317
:1012D00072C79C3F88B3060E31291CC303C7A73FC2
:1012E00022B4410DAA2AC1C295C6B13FBEB47C0C3E
:1012F000212C6DC227C6BB3F5EB5B70B932D1DC217
:10130000BAC5C43F00B6F10A022FD3C14EC5CC3FC7
:10131000A5B62B0A6C308EC1E2C4D43F4DB7640928
:10132000D2314FC176C4DB3FF8B79D08343315C1C5
:101330000CC4E13FA6B8D6079234E0C0A1C3E73F92
:1013400056B90E07EB35B1C038C3EC3F09BA4606B3
:101350003F3788C0CFC2F13FBFBA7E058E3864C028
:1013600066C2F53F77BBB504D93945C0FEC1F83F29
:1013700032BCED031E3B2CC097C1FB3FF0BC2403E5
:101380005F3C19C030C1FD3FB0BD5B029A3D0BC050
:10139000CAC0FF3F73BE9201D03E03C065C000408B
:1013A00038BFC9002DE9FE4F804681EA0300C00F17
:1013B0000C46009021F0004123F00045B8EB0200FC
:1013C000A94105D24046214690461C460B4602469E
:1013D00023F00040104347D0270DC7F30A00C3F3A2
:1013E0000A510290401A019040286BDAC3F31300AF
:1013F00040F4801B0098924620B10023D2EB030AF0
:1014000063EB0B0B01985946C0F14002504600F0C7
:10141000D3F906460D4650465946019A00F0EBF9BD
:1014200010EB08006141002487EA115284EAE77357
:101430001A4340D0009A62B3019A012A4FEA075238
:1014400015DC001B61EB02014FF0004202EA07527B
:10145000CDE90042001C41F5801132462B4600F0D8
:10146000EBF903B0BDE8F08F40462146F9E7001BD9
:1014700061EB0201001C41F5801300185B4120184C
:10148000A2F5001747EB030140EAD570B6196D418C
:1014900011E06D084FEA360645EAC0754FEA07527B
:1014A000001B61EB0201001C41F5801149084FEA65
:1014B00030000019514132462B4603B0BDE8F04FD1
:1014C00000F0ABB90098012240000023D0EB0202EB
:1014D00063EBE073009821464FEAE074B8EB00003C
:1014E00061EB0401E9E783F000435BE781F0004131
:1014F00058E72DE9FE4F81EA030404F0004421F08F
:10150000004100944FF0000B23F0004350EA010427
:101510005ED052EA03045BD0C3F30A54C1F30A5508
:101520002C44A4F2F3340194A0FB0254C1F3130140
:1015300041F48011C3F3130343F4801301FB02440D
:1015400000FB034E840A970A44EA815447EA835712
:10155000A4FB076802958D0A05FB07854FEA932CCB
:1015600004FB0C542705029D4FEA065847EA16373C
:10157000B5EB08056EEB070C870E920E47EA811754
:1015800042EA8312A7FB0201B6EB0B0164EB0004F5
:101590002B0D43EA0C335E1844EB1C50DA465146DF
:1015A000E7FB0201C5F313044FEA0B3343EA14537C
:1015B0004FEA0432019C43EA0603A4F10C040294AE
:1015C000009CCDE900B400F037F903B0BDE8F08F1E
:1015D00000200146F9E72DE9F04D81EA030404F00B
:1015E000004B21F0004514464FF0000A23F0004163
:1015F00050EA050220D054EA01021DD0C5F30A5773
:101600000246C5F31303C1F31300C1F30A5640F4B5
:10161000801543F48013A7EB0608101BD64608F28A
:10162000FD3873EB050002D308F1010801E09218C0
:101630005B41B8F1000F03DA00200146BDE8F08DF0
:1016400000204FF48011064684460EE0171B73EB12
:10165000050705D3121B63EB050306434CEA010C97
:1016600049084FEA300092185B4150EA0107EDD17A
:1016700052EA030012D082EA040083EA050108431B
:1016800005D0101BAB4106D20122002306E0002248
:101690004FF0004302E06FF0010253101AEB060016
:1016A0004CEB085110EB0A0041EB0B01BDE8F04D8B
:1016B00000F0B3B80EB5C10F80EAE0700844CA0765
:1016C000002140F233438DE80E000A460B4600F03D
:1016D000B3F803B000BD0EB540F2334102910021D2
:1016E000CDE900110A460B4600F0A6F803B000BD94
:1016F00070B5C1F30A5201F000450024C1F3130193
:1017000040F2FF3341F480119A4201DA002070BDAB
:1017100040F233439A42A2F2334203DC524200F0D9
:101720005AF800E090402C43F1D0404270BDC1F324
:101730000A5210B5C1F3130140F2FF3341F4801196
:101740009A4201DA002010BD40F233439A42A2F2DD
:10175000334203DC524200F03EF810BD904010BD11
:1017600000F0004230F000400AD0C10D01F5607178
:10177000C0F3160042EA0151C20840071143704706
:10178000002001467047000030B5041E71F10004CE
:1017900004DB4FF00044404264EB0101141E73F17E
:1017A000000405DB1C464FF00043524263EB040388
:1017B0008B4208BF824230BD202A04DB203A00FA67
:1017C00002F1002070479140C2F1200320FA03F398
:1017D000194390407047202A04DB203A21FA02F096
:1017E0000021704721FA02F3D040C2F1200291405B
:1017F000084319467047202A06DBCB17203A41FAE6
:1018000002F043EAE07306E041FA02F3D040C2F18D
:101810002002914008431946704710B5141E73F119
:10182000000408DA401C41F1000192185B411A43A0
:1018300001D120F0010010BD2DE9F04D92469B46EC
:1018400011B1B1FA81F202E0B0FA80F22032904692
:10185000FFF7B2FF04460F4640EA0A0041EA0B01D7
:1018600053465A46084313D0114653EA010019D093
:10187000C8F140025046FFF7AEFF05460E465046FF
:1018800059464246FFF798FF084305D0012004E07F
:1018900020463946BDE8F08D0020054346EAE07653
:1018A0002C4337430A986305E40AA0EB08000022A2
:1018B000FD0A44EA47540A3002D500200146E9E710
:1018C000010510196941DDE9084500196941BDE8C4
:1018D000F04DA2E72DE9F04D00231A461B1A8A416C
:1018E00003DB00200146BDE8F08DC1F30A52C1F3CD
:1018F000130141F480154FF0000BD10702D10018FD
:101900006D41521E0027044640F2FF11384601EB9C
:10191000620A3E468046024600204FF48011FFF7DF
:101920005AFFC2197141BB1846EB0100B4EB030C1E
:1019300075EB000C04D3E41A65EB000517460E4660
:10194000241908F101006D4180463428E3DDF919BE
:1019500046EB0600091BA84103D24FF0FF321346A5
:1019600001E0002213461BEB070046EB0A51BDE8DD
:10197000F04DFFF752BF0000064C074D06E0E0684F
:1019800040F0010394E8070098471034AC42F6D3C6
:10199000FEF7FEFB304000085040000870B58D187F
:1019A00010F8014B14F0030201D110F8012B2311A0
:1019B00006D110F8013B03E010F8016B01F8016B50
:1019C000521EF9D1ABB110F8012B04F00C048A1AA5
:1019D0000C2C03D0A2EB84129B1C08E010F8014BE6
:1019E000A2EB0422F8E712F8014B01F8014B5B1E51
:1019F000F9D5A942D4D3002070BD21B1826842F04C
:101A00000102826003E0826822F001028260704776
:101A10000021084A1168084A1140D0E900231A43FE
:101A200083681A43C3681A431143044AC2F8041373
:101A30007047000004230140E030FCFF002001401B
:101A400000B59BB000F0C0F8414800F029FB01212F
:101A5000880500F027FD0121080200F043FD382031
:101A60008DF8040000208DF805008DF80600012097
:101A70008DF8070001A800F0ADFC00200290354869
:101A8000039035480490002005904FF47A7006903A
:101A9000002007904FF4806008904000099080007B
:101AA0000A9000200B904FF400300C9000200D9015
:101AB00001200E9000200F90109002A9244800F001
:101AC000EBFB0021224800F0DFFA2449204800F017
:101AD000C1FA012210211E4800F0C0FB0020119025
:101AE00012901390149011A8FFF792FF0020159008
:101AF0008DF858008DF859004FF080501790401025
:101B000018900020199001208DF8680015A911483F
:101B10004C3800F079F80023012209210D484C3897
:101B200000F09CF801210B484C3800F024F801210A
:101B300008484C3800F014F8012106484C38FFF7EB
:101B40005CFF04484C3800F0E5F81BB000BD000015
:101B5000106402404C200140C05C00202080001036
:101B600021B1826842F48072826003E0826822F4CC
:101B700080728260704721B1826842F40072826094
:101B800003E0826822F400728260704710B5044658
:101B90000A48006820F0010008490860081D046038
:101BA0000749001F00F056FA002006490860034864
:101BB000006840F001000149086010BD1064024057
:101BC0003CF000100020014010B50121080200F097
:101BD00099FC00214FF4807000F094FC10BD0000CF
:101BE0001CB50121022000F05DFC022000900320C2
:101BF0008DF8040000208DF807006946014800F0C8
:101C000078FB1CBD0004024030B5024600200023D2
:101C10005068104C20400D790C6844EA052420439C
:101C2000506090680C4C2040D1E903542C438D68DF
:101C30002C434D7944EA450420439060D06A20F457
:101C400070000C7D641EE4B2234340EA0350D0626E
:101C500030BD0000FFFEFFFCFDF7FFC0F0B50446FD
:101C60000D4600200021092D11DDE068A5F10A06CE
:101C700006EB4607072606FA07F18843A5F10A0690
:101C800006EB460603FA06F10843E0600CE0206923
:101C900005EB4507072606FA07F1884305EB4506DD
:101CA00003FA06F108432061072A0FDA606B561E1B
:101CB00006EB86071F2606FA07F18843561E06EB39
:101CC000860605FA06F10843606322E00D2A0FDA62
:101CD000206BD61F06EB86071F2606FA07F18843FE
:101CE000D61F06EB860605FA06F10843206310E0CE
:101CF000E06AA2F10D0606EB86071F2606FA07F139
:101D00008843A2F10D0606EB860605FA06F10843A4
:101D1000E062F0BD816841F080418160704700BFA2
:101D2000FEE7000000B597B00121084600F0BAFBBD
:101D30000121480700F0C6FB0121480500F0B2FB75
:101D40001020159003208DF8580000208DF85B00BE
:101D500015A92E4800F0CDFA00201390022014900F
:101D60002C2011900020129011A900F0FFF8002102
:101D7000084600F015F94FF0606002904FF4807053
:101D80000B9040200590C82006904FF480300C90B6
:101D900000200D9001200E901D48049000200F900F
:101DA0004FF400500A90C01008901A480390002089
:101DB00010904FF4006009900020079002A9164887
:101DC00000F06AFA0121144800F05EF901210020B8
:101DD00000F0B6F80121002000F09EF84FF4C0603A
:101DE00000F034FB10208DF8040001208DF8050070
:101DF0008DF806008DF8070001A800F0EBFA01222B
:101E00001021054800F02AFA17B000BD000002407A
:101E100038000020087400408860024000B597B088
:101E20000121084600F03EFB0121480700F04AFB73
:101E30000121480500F036FB2020159003208DF885
:101E4000580000208DF85B0015A92F4800F051FACA
:101E50000020139002201490042011900020129072
:101E600011A9102000F082F80021084600F0A8F81F
:101E70004FF0606002904FF480700B90402005900E
:101E8000C82006904FF480300C9000200D900E90EA
:101E90001E48049000200F904FF400500A90C0108C
:101EA00008901B480390002010904FF400600990A8
:101EB0000020079002A9174800F0EEF94FF4C06027
:101EC00000F0C4FA11208DF8040001208DF80500FF
:101ED00000208DF8060001208DF8070001A800F011
:101EE00079FA012210210B4800F0B8F901210948C4
:101EF00000F0CAF80121102000F022F80121102082
:101F000000F00AF817B000BD00000240C801002030
:101F100014740040A060024039B1084A12680123DD
:101F200083401A43054B1A6006E0044A12680123F5
:101F300083409A43014B1A607047000000740040D0
:101F400041B1094A12684FF4805383401A43064B4B
:101F50001A6007E0044A12684FF4805383409A43A2
:101F6000014B1A60704700000074004030B5002239
:101F700000230A4C226840F6FE748440A243D1E953
:101F800000452C438D682C43CD6844EA050303FAD1
:101F900000F42243014C226030BD00000074004078
:101FA00008B500220092054A009200F10802009B49
:101FB0001A440092009A116008BD000000740040AD
:101FC00008B500220092054A009200F11402009B1D
:101FD0001A440092009A116008BD0000007400408D
:101FE00010B50649064800F007F930B10349044826
:101FF00000F030F801200349087010BD008800206F
:10200000886002403600002010B50649064800F0FE
:10201000F3F830B10349044800F01CF801200349EB
:10202000087010BD00802020A06002403700002012
:1020300010B50649064800F00DF84FF6FF70044948
:10204000091F0860091F086010BD00003CF0001067
:10205000106402400246094B9A4201D2084801E04E
:102060000648103801F000531BB1064B0B40C3600B
:1020700002E0044B0B408360704700001064024094
:10208000006002407D0F7D0F21B1026842F0010225
:10209000026003E0026822F0010202607047000063
:1020A000016821F00101016000210160416081604F
:1020B000C1600161212141614A49884204D13D2129
:1020C000484A103A91608CE046491831884205D15F
:1020D0004FF47461434A103A916082E041493031D3
:1020E000884205D14FF474113E4A103A916078E06D
:1020F0003C494831884205D14FF07461394A103A61
:1021000091606EE037496031884204D13649354AE2
:10211000103AD16065E033497831884204D13349BF
:10212000304A103AD1605CE02E499031884204D1A7
:102130002F492C4A103AD16053E02A49A8318842ED
:1021400005D14FF03D51274A103AD16049E0294965
:10215000884204D13D21274A083A116041E02549CF
:102160001831884205D14FF47461224A083A11604F
:1021700037E020493031884205D14FF474111D4AAF
:10218000083A11602DE01B494831884205D14FF0D3
:102190007461184A083A116023E016496031884298
:1021A00004D11149134A121F11601AE01149783104
:1021B000884204D10D490F4A121F116011E00D49E8
:1021C0009031884204D10A490A4A121F116008E07E
:1021D0000849A831884204D14FF03D51054A121FE9
:1021E00011607047106002403D000020400F002049
:1021F00000003D201064024070B50246002000241B
:102200000025124EB24201D2114B01E00F4B103BA0
:10221000104E0E4036B11E2606EAD124166806EA94
:10222000040502E0566906F0800501F000560EB183
:102230005C6800E01C68084E344004EA010616B1F0
:102240000DB1012000E0002070BD000010640240CC
:10225000006002403C0F3C0F7D0F7D0F10B501F078
:1022600080034BB122B1436943F08003436103E033
:10227000436923F08003436180290BD02AB10368AE
:1022800001F01E042343036004E0036801F01E0410
:10229000A343036010BD000010B500220268134B79
:1022A0001A40CC680B6823434C6923438C69234351
:1022B000CC6923430C6A23434C6A23438C6A23432F
:1022C0004C6B23438C6B23431A430260426922F018
:1022D0000702D1E90B3423431A4342610B6943607F
:1022E0004B6883608B68C36010BD00003F801CF0AA
:1022F0007047F0B50A4600210023002400BF3DE0EE
:10230000012505FA01F3156805EA03049C4234D15E
:1023100005684F000326BE40B543056015794E00A1
:10232000B5400668354305601579012D02D0157951
:10233000022D16D185684F000326BE40B543856047
:1023400055794E00B540866835438560456801265D
:102350008E40B5434560456896798E40B6B23543A8
:102360004560C5684F000326BE40B543C560D579BA
:102370004E00B540C6683543C560491C1029BFD31F
:10238000F0BDF0B5002300244D07ED0E02FA05F371
:10239000CE1000F1200555F826504E07F70E0F26F7
:1023A000BE40B543CF1000F1200646F82750CE10AE
:1023B00000F1200555F8265045EA0304CE1000F13F
:1023C000200545F82640F0BD00BFFEE700BFFEE750
:1023D0007047000070B5002100230F22C4781CB3A1
:1023E000174C246804F4E064C4F5E064C4F30721E6
:1023F000C1F10404E3B20A4144789C40E1B284781C
:10240000144021430C07210E0E4C057861550478C9
:1024100004F01F050124AC4005786D11AD0005F1F5
:10242000E025C5F8004109E0047804F01F05012407
:10243000AC40054D0678761145F8264070BD000089
:102440000CED00E000E400E080E100E0024901431F
:10245000024A1160704700000000FA050CED00E030
:1024600000BF00BF00BFBFF34F8F00BF00BF00BF62
:102470000948006800F4E06008490843001D064967
:10248000086000BF00BF00BFBFF34F8F00BF00BF99
:1024900000BF00E000BFFDE70CED00E00000FA0522
:1024A0007047000029B1064A12680243044B1A60C3
:1024B00004E0034A12688243014B1A60704700002F
:1024C0003038024029B1064A12680243044B1A60B0
:1024D00004E0034A12688243014B1A60704700000F
:1024E0004038024029B1064A12680243044B1A6080
:1024F00004E0034A12688243014B1A6070470000EF
:102500004438024029B1064A12680243044B1A605B
:1025100004E0034A12688243014B1A6070470000CE
:1025200024380240F0B500210022002402250026B4
:102530000223324F3F6807F00C0121B1042905D076
:10254000082937D105E02E4F076036E02D4F076090
:1025500033E02A4F3F1F3F68C7F38056274F3F1F86
:102560003F6807F03F036EB1264FB7FBF3F7DFF884
:102570008CC0ACF1040CDCF800C0CCF3881C07FB69
:102580000CF40CE01E4FB7FBF3F7DFF870C0ACF1B2
:10259000040CDCF800C0CCF3881C07FB0CF4174FCC
:1025A0003F1F3F68C7F301477F1C7D00B4FBF5F771
:1025B000076002E0124F076000BF00BF0F4F3F6887
:1025C00007F0F0010909104F7A5C0768D7404760AF
:1025D0000A4F3F6807F4E051890A0B4F7A5C47685D
:1025E000D7408760054F3F6807F46041490B064FAD
:1025F0007A5C4768D740C760F0BD000008380240E9
:102600000024F40040787D010000002070470000A5
:1026100000B58FB001210846FFF744FF07220221D1
:102620005148FFF7AEFE072203214F48FFF7A9FEEE
:1026300002208DF8380000208DF83A0004200D901B
:1026400001208DF83B0002208DF839000DA9464885
:10265000FFF74FFE02208DF8380008200D900DA9DD
:102660004148FFF746FE01214804FFF72BFF4FF4D6
:10267000E13009900020ADF830000C20ADF82E00BC
:102680000020ADF82C00ADF82A00ADF8280009A90B
:10269000364800F05BFA012240F22551334800F041
:1026A0002FFA26208DF8200001208DF823008DF8C8
:1026B00021008DF8220008A8FFF78CFE01212B488D
:1026C00000F005FA01218804FFF7FCFE0121022039
:1026D000FFF7F8FE4FF48060059002208DF8190096
:1026E0008DF8180005A92248FFF703FE4FF400609B
:1026F000059002208DF8180005A91D48FFF7F9FD87
:102700004FF4E13001900020ADF80800ADF80A0068
:10271000ADF80C00ADF810000C20ADF80E0001A9CA
:10272000144800F013FA012240F22551114800F03C
:10273000E7F9012240F224410E4800F0E1F90121BD
:102740000C4800F0C4F927208DF81C0006208DF8F5
:102750001D0000208DF81E0001208DF81F0007A825
:10276000FFF738FE0FB000BD0000024000440040FB
:1027700000040240004800400CB500200190009089
:102780003448006840F480303249086000BF314866
:10279000006800F4003000900198401C01900098FF
:1027A00018B90198B0F5A04FF1D12A48006800F49B
:1027B000003010B10120009001E00020009000984E
:1027C000012846D123484030006840F0805021491C
:1027D000403108602048006840F440401E490860CD
:1027E0001C48083000681B4908310860084600682A
:1027F00040F4004008600846006840F4A0500860BB
:102800001648091F0860081F006840F08070091F03
:10281000086000BF0F48006800F000700028F9D081
:1028200040F205700E4908600A480830006820F040
:1028300003000849083108600846006840F00200BB
:10284000086000BF03480830006800F00C0008284A
:10285000F8D10CBD00380240007000401954400708
:10286000003C02407047000010B51548006840F475
:102870007000134908601348006840F001001149D6
:10288000086000200F49083108600E4800680E49B2
:1028900008400C4908600D48091D0860081F0068C1
:1028A00020F48020091F0860002006490C310860D0
:1028B000FFF762FF4FF0006001498039086010BDEA
:1028C00088ED00E000380240FFFFF6FE10300024E3
:1028D0000EB501210220FFF7F5FD532001900020E5
:1028E000ADF80000ADF80800ADF8020069460848F0
:1028F00000F070F82021064800F062F80121044839
:1029000000F040F80121024800F048F80EBD000038
:10291000000400400EB501210420FFF7D3FD0A4852
:1029200000F048F8532001900020ADF80000ADF809
:102930000800ADF802002021034800F041F8694684
:10294000014800F047F80EBD000800400EB5012117
:102950001020FFF7B7FD0A4800F02CF85320019033
:102960000020ADF80000ADF80800ADF8020020210D
:10297000034800F025F86946014800F02BF80EBD29
:102980000010004021B1028842F08002028004E081
:1029900002884FF67F731A400280704721B1028887
:1029A00042F00102028004E002884FF6FE731A40F2
:1029B0000280704701894FF6F8721140018170471B
:1029C00082884FF68F731A40828082880A43828001
:1029D0007047000000220288184B98420ED0184B16
:1029E00098420BD0B0F1804F08D0164B984205D0DA
:1029F000154B984202D0154B984204D14FF68F7375
:102A00001A404B881A43124B984207D0114B9842F8
:102A100004D04FF6FF431A400B891A4302804B68DB
:102A2000C3620B880385054B984202D0044B984241
:102A300001D18B7A03860123838270470000014015
:102A4000000401400004004000080040000C004069
:102A5000001000400014004010B520210F4800F085
:102A600042F8012819D10D4800F0DAF800B20C49FB
:102A7000088008460088012802D10A49087007E04A
:102A80000120094908700648B0F9000007490860AC
:102A900040F22551014800F00BF810BD0044004001
:102AA0003400002058030020590300207003002048
:102AB00010B50022002340F66A14A14200D100BFE5
:102AC0000A1201249440A3B2DC43048010BD21B15A
:102AD000828942F40052828104E082894DF6FF73BC
:102AE0001A408281704702460020B1F5007F00D174
:102AF00000BF13880B400BB1012000E0002070479D
:102B0000F0B50346002400260025002040F66A1791
:102B1000B94200D100BF1846C1F3421401F01F06AC
:102B2000012707FA06F5012C01D10C3004E0022C34
:102B300001D1103000E014301AB107682F4307604C
:102B400002E00768AF430760F0BD00002DE9FF47D2
:102B500005460E460024A14600BFA046B08900B13C
:102B600000BF2C8A24F44054F08804432C82AC89A2
:102B700041F20C608443B08831890843718908436D
:102B80000443AC81AC8A24F44074B0890443AC8221
:102B90006846FFF7C7FC2048854202D01F4885429F
:102BA00002D1DDF80C9001E0DDF80890A88900F46E
:102BB000004040B109EBC90000EB09103168490041
:102BC000B0FBF1F707E009EBC90000EB0910316831
:102BD0008900B0FBF1F76420B7FBF0F00401200995
:102BE000642101FB1078A88900F4004040B1322034
:102BF00000EBC800B0FBF1F000F00700044308E070
:102C0000322000EB08106421B0FBF1F000F00F005F
:102C100004432C81BDE8FF870010014000140140EF
:102C200001468888C0F30800704700BFFEE703B480
:102C300001984100009850EAC12018BF04204A0DB5
:102C400018BF40F0010040F2FF72B2EB515F08BFC5
:102C500040F00200012808BF052002B070470000C4
:102C600070B59B482DED020B2DED068B079D25F0D1
:102C70000044A04218DC9748844202DC0AD106983E
:102C800040B19DED060BBDEC068B02B0BDE8704077
:102C900000F00BBB002DCCBF9FED8F0B9FED900B79
:102CA000BDEC068B02B070BD8F48A04215DD8F4889
:102CB000A042D8BF4FF0FF3458DD9DED060B51EC1C
:102CC000100BFFF7B4FF042808BF00F005FB9DEDD3
:102CD000060BBDEC068B02B070BD9DED060B51ECF2
:102CE000100B00F021FCCDE9060181489FED828B9D
:102CF000A0423CDD8248A0421FDD00249FED82AB54
:102D00009DED060B53EC1A2B51EC100BFEF74AFB12
:102D10009DED060B41EC190B53EC1A2B51EC100BEB
:102D2000FEF7E7FB53EC182BFEF7DDFB53EC192BFA
:102D3000FEF751FCCDE9060149E09DED060B0124AB
:102D400053EC182B51EC100BFEF72CFB9DED060BF2
:102D500041EC190B53EC182B51EC100BFEF7C3FB95
:102D600053EC192BFEF737FCCDE906012FE068483C
:102D7000A0421FDD02249FED689B9DED060B53ECE6
:102D8000192B51EC100BFEF7B4FB53EC182BFEF78C
:102D900009FB9DED060B41EC180B53EC192B51EC84
:102DA000100BFEF7A0FB53EC182BFEF714FCCDE93B
:102DB00006010CE09DED060B032453EC102B9FED58
:102DC000580B51EC100BFEF706FCCDE906019DED0A
:102DD000060B53EC102B51EC100BFEF78AFB41EC69
:102DE000180B53EC182BFEF784FB41EC190B4E48E3
:102DF0000621B0EE490AF0EE690A784400F0D9F9EC
:102E000053EC182B51EC100BFEF773FB41EC180B35
:102E10004648B0EE490AF0EE690A0521784400F010
:102E2000C8F953EC192B51EC100BFEF762FB41EC87
:102E3000100B51EC180B53EC102B002C0EDAFEF794
:102E4000B1FA9DED061B53EC112BFEF752FB9DEDE5
:102E5000061B53EC112BFEF749FB35E0FEF7A2FAF7
:102E60009DED061B53EC112BFEF743FB41EC100BC1
:102E70002F48784400EBC40090ED001B51EC100B80
:102E800053EC112BFEF72FFB9DED061B53EC112B82
:102E9000FEF729FB41EC100B2648784400EBC400F8
:102EA00090ED001B51EC100B53EC112BFEF71EFBA9
:102EB00041EC100B002DA2BFBDEC068B02B070BD23
:102EC00051EC100B81F0004141EC100B01E70000C8
:102ED000000010440000F07F182D4454FB21F93FFE
:102EE000182D4454FB21F9BF0000DC3F0000203EB8
:102EF0000000F33F00000000000000000000F03F71
:102F00000000E63F0000000000000000000000405C
:102F10000080034000000000000000000000F83FB7
:102F2000000000000000F0BFFA110000B011000026
:102F30003A110000F210000070B56F4E2DED040B39
:102F40002DED048B82B0DDF824C0DDE907235C425F
:102F50002CF000411C4341EAD474069D22F000404D
:102F6000B44205D86C422C4340EAD474B4420BD925
:102F70009DED081B9DED060B02B0BDEC048B04B06B
:102F8000BDE8704000F09BB9ACF14054A4F17F64FF
:102F90001C430BD0022404EAAC7444EAD274054307
:102FA0009FED578B9FED582B07D015E09DED060B3D
:102FB00051EC100B00F0B6F942E0002C11BF012CCF
:102FC0009DED060B02B0BDEC048B04BF04B070BDD8
:102FD000022C38D0032C3BD00B439FED4D1B9FEDB3
:102FE0004E0B0AD0B14218D1B04209D121F0804134
:102FF00020F08040099107900FE0002A15DA10E0D8
:10300000474B7B44002C08BF93ED000B0DD0012CE7
:1030100010D0022C17D0032C1AD0B0421DD1002A98
:1030200003DAB0EE410AF0EE610A02B0BDEC048BA7
:1030300004B070BD93ED000B51EC100B81F000411A
:1030400041EC100BF1E7B0EE480AF0EE680AECE74D
:10305000B0EE420AF0EE620AE7E7401A00159FED73
:10306000329B3C28C8BF8DED000B17DCBCF1000F74
:10307000BCBF10F13C0F8DED009B0FDB9DED080BED
:1030800053EC102B9DED060B51EC100BFEF7A3FA41
:1030900000F04AFA00F046F9CDE90001B4B1012C84
:1030A00010D0022C9FED220B53EC102B9DED000B4A
:1030B00051EC100B19D0FEF716FA53EC182BFEF753
:1030C00012FABDE7019880F0004001909DED000BE1
:1030D00053EC192B51EC100BFEF756FB04BF0220EA
:1030E00000F01AF99DED000B9FE7FEF7FCF953EC99
:1030F000182BFEF7FBF9A3E70000F07F00000000AB
:10310000182D4454FB210940182D4454FB2109C0BB
:10311000182D4454FB21F9BF182D4454FB21F93FCD
:10312000221000000000000000000000000000006D
:10313000075C143326A6A13C00B52DED048BB0EE40
:10314000409AF0EE609A83B051EC190BFEF7C2FB87
:1031500041EC180B18EE100A18EE901A8DED008B4A
:10316000002818BF0120084320F00040C0F17F6014
:1031700000F1E040C00F14D019EE101A19EE900AB9
:103180008DED009B002918BF0121084320F000406D
:10319000C0F17F6000F1E040C00F04BF012000F0EB
:1031A000BBF8B0EE480A03B0F0EE680ABDEC048B41
:1031B00000BD70B504462DED028B4D1E00EBC50021
:1031C000B0EE408AF0EE608A90ED000B35F006001C
:1031D00017D053EC182B51EC100BFEF78AF941EC89
:1031E000100B6D1E04EBC50090ED001B51EC100B95
:1031F00053EC112BFEF7D6F841EC100B35F006001E
:10320000E7D1022D36D0042D1CD0062D1CBFBDECFD
:10321000028B70BD53EC182B51EC100BFEF769F9C3
:1032200094ED0A1B53EC112BFEF7BCF853EC182B52
:10323000FEF75FF994ED081B53EC112BFEF7B2F883
:1032400041EC100B53EC182B51EC100BFEF751F91D
:1032500094ED061B53EC112BFEF7A4F853EC182B3E
:10326000FEF747F994ED040B53EC102BFEF79AF898
:1032700041EC100B53EC182B51EC100BFEF739F905
:1032800094ED021B53EC112BFEF78CF853EC182B2A
:10329000FEF72FF994ED001B53EC112BFEF782F88B
:1032A000BDEC028B41EC100B70BD10B553EC102B34
:1032B00051EC100BFEF776F841EC100B10BD10B579
:1032C00053EC112B51EC100BFEF76CF841EC100B8A
:1032D00010BD0000000000009FED050B10B553EC81
:1032E000102B51EC100BFEF704F941EC100B10BD44
:1032F000000000000000001002E008C8121F08C112
:10330000002AFAD170477047002001E001C1121F66
:10331000002AFBD170470000014908607047000097
:10332000BC5C002010B541EC100BFFF799FC51EC90
:10333000100B10BDF0B52DED068BCDB00546002469
:1033400032E0C8206043584A02EB4001574800F081
:10335000B1F8B0EE408AF0EE608AC8206043544A6B
:1033600002EB4001514800F0A5F8B0EE409AF0EEB3
:10337000609AB0EE491AF0EE691AB0EE480AF0EE23
:10338000680A00F0D1FD26A800EBC40080ED000B18
:1033900026A800EBC40090ED000B684600EBC400CB
:1033A00080ED000B601CC4B2132CCADB002438E093
:1033B000002630E06946701C01EBC00090ED002B48
:1033C000B0EE420AF0EE620A684600EBC60090EDED
:1033D000002BB0EE421AF0EE621A53EC102B51ECB7
:1033E000110BFEF7D1F914D2684600EBC60090ED40
:1033F00000AB6946701C01EBC00090ED000B684605
:1034000000EBC60080ED000B701C01EBC00080EDEE
:1034100000AB701CC6B2C4F11200B042CADC601C22
:10342000C4B2122CC4DB00242FE09DED002BB0EEC3
:10343000420AF0EE620A26A800EBC40090ED002BD1
:10344000B0EE421AF0EE621A53EC102B51EC110B55
:10345000FEF79AF900D12C709DED022BB0EE420AD6
:10346000F0EE620A26A800EBC40090ED002BB0EE4F
:10347000421AF0EE621A53EC102B51EC110BFEF7CE
:1034800083F900D16C70601CC4B2132CCDDB28789A
:103490006978884203DD2F78687828706F704DB0A6
:1034A000BDEC068BF0BD0000AC030020C05C00202A
:1034B0005C2100202DE9F0412DED048B05460E46E0
:1034C0009FED170BB0EE408AF0EE608A00241BE0FF
:1034D000C82094FBF0F100FB114036F91000A0F574
:1034E000006035F91410A1F5006100FB01F73846C2
:1034F000FEF7E0F841EC190B53EC182BFDF752FFE7
:1035000041EC180B601C04B2B4F57A7FE0DBB0EE3E
:10351000480AF0EE680ABDEC048BBDE8F0810000BB
:10352000000000000000000082B0CDE9000121F0A1
:10353000004001909DED000B02B051EC100B704764
:103540002DE9F05F2DED0A8BADF5215D04460F46A8
:103550004FF00009002505E0FE4830F915008144D0
:10356000681C05B2B5F5806FF6DB48464FEAE97195
:1035700009EB91514FEAA12B002511E0F54830F8F5
:103580001500A0EB0B0000B269000DF5C25222F845
:10359000110000216800401C22F81010681C05B2C0
:1035A000B5F5806FEADB4FF480620DF5C2510DF581
:1035B0000460FCF707FE002519E068000DF50461C2
:1035C00031F8100010FB00F16800401C0DF504629A
:1035D00032F810206800401C0DF5046333F8100029
:1035E00012FB001010A941F82500681C05B2B5F5C2
:1035F000007FE2DB207800EE100AF8EE400AB1EE20
:10360000041AB2EE040A00EE810AB0EE408A9FED81
:10361000D20AC8EE000AB0EE608A9FEDD00A28EE0A
:10362000000AB0EE408A18EE100AFEF799F841EC55
:103630001C0B9FEDCB0B53EC102BFDF7B3FE41ECB5
:103640001B0BFEF774F886B2207800EE100AF8EE35
:10365000400AB1EE041AB2EE040A00EE810AB0EE9E
:10366000408A9FEDBD0AC8EE000AB0EE608AB0EE57
:10367000080A28EE000ADFEDB90A20EE200AB0EEB3
:10368000408A18EE100AFEF76BF841EC1C0B9FED18
:10369000B40B53EC102BFDF785FE41EC1B0BFEF732
:1036A00046F81FFA80F8701E10A951F8200051F852
:1036B0002610014410AA701C52F82000084400EEA5
:1036C000100AF8EEC08AA8F1010010A951F82010E4
:1036D00052F82800014408F1010052F82000084483
:1036E00000EE100AF8EEC09A88EEA99A9FED9E0AA5
:1036F000B4EEC09AF1EE10FA02DD0020387001E05D
:1037000001203870607800EE100AF8EE400AB1EE41
:10371000041AB2EE040A00EE810AB0EE408A9FED70
:103720008E0AC8EE000AB0EE608A9FED8C0A28EE81
:10373000000AB0EE408A18EE100AFEF711F841ECCC
:103740001C0B9FED870B53EC102BFDF72BFE41EC70
:103750001B0BFDF7ECFF86B2607800EE100AF8EE66
:10376000400AB1EE041AB2EE040A00EE810AB0EE8D
:10377000408A9FED790AC8EE000AB0EE608AB0EE8A
:10378000080A28EE000ADFED750A20EE200AB0EEE6
:10379000408A18EE100AFDF7E3FF41EC1C0B9FED89
:1037A000700B53EC102BFDF7FDFD41EC1B0BFDF7EF
:1037B000BEFF1FFA80F8701E10A951F8200051F8C2
:1037C0002610014410AB701C53F82000084400EE92
:1037D000100AB8EEC00AF0EE408AA8F1010010A964
:1037E00051F8200051F82810014408F1010053F865
:1037F0002000084400EE100AB8EEC00AF0EE409A2D
:1038000088EEA90AB0EE409A9FED570AB4EEC09A2E
:10381000F1EE10FA02DD0020787001E001207870EE
:10382000207808B9012000E000206178042901D146
:10383000012100E0002108402178012900D100E0A9
:1038400000216278072A01D1012200E00022114004
:1038500008432178022901D1012100E0002162788A
:103860000A2A01D1012200E00022114008432178F8
:10387000032901D1012100E0002162780D2A01D144
:10388000012200E00022114008432178042901D1DF
:10389000012100E000216278102A01D1012200E01C
:1038A0000022114008430F900F9800287ED0207806
:1038B00000EE100AF8EE400AB1EE041AB2EE040A65
:1038C00000EE810AB0EE408A9FED230AC8EE000A9E
:1038D000B0EE608A9FED210A28EE000AB0EE408A21
:1038E00018EE100AFDF73CFF41EC1C0B9FED1C0B82
:1038F00053EC102BFDF756FD41EC1B0BFDF717FFAA
:1039000086B2701E10A951F8200051F8261001440B
:1039100010AB701C53F82000084400EE100AB8EEFB
:10392000C00AF0EE408A207800EE100AF8EE400A55
:10393000B1EE041AB2EE040A00EE810AB0EE408A3B
:103940009FED050AC8EE000AB0EE608AB1EE040AE7
:103950000CE00000C05C00200000FA4300000044BE
:10396000000000000000E03F0000484328EE000A8D
:103970005FED060A20EE200AB0EE408A18EE100A2B
:10398000FDF7EEFE41EC1C0B1FED0B0B53EC102B67
:10399000FDF708FD41EC1B0BFDF7C9FE1FFA80FA8D
:1039A000AAF1010010A951F8200000E01CE051F834
:1039B0002A10014410AA0AF1010052F8200008441C
:1039C00000EE100AB8EEC0AA88EE8A0AB0EE409A5D
:1039D0001FED1B0AB4EEC09AF1EE10FA02DD0020D2
:1039E000387001E0012038700DF5215DBDEC0A8BC7
:1039F000BDE8F09F10B52DED088B002447480078F6
:103A0000C82210FB02F0464A02EB40014548FFF78E
:103A100051FDB0EE40AAF0EE60AA40480078C822FE
:103A200010FB02F0404A02EB40013E48FFF742FD26
:103A3000B0EE40BAF0EE60BAB0EE4A1AF0EE6A1A92
:103A4000B0EE4B0AF0EE6B0AFFF776FAB0EE408A62
:103A5000F0EE608A9FED350B53EC102B51EC180BF8
:103A6000FDF792FE06D251EC180B81F00041314A6D
:103A700003C209E053EC182B9FED2F0B51EC100BF8
:103A8000FDF731FD2B4A03C224484078C82210FBC1
:103A900002F0234A02EB40012248FFF70BFDB0EE93
:103AA00040AAF0EE60AA1D484078C82210FB02F040
:103AB0001D4A02EB40011B48FFF7FCFCB0EE40BA88
:103AC000F0EE60BAB0EE4A1AF0EE6A1AB0EE4B0AA7
:103AD000F0EE6B0AFFF730FAB0EE409AF0EE609A23
:103AE0009FED120B53EC102B51EC190BFDF74CFE14
:103AF00006D251EC190B81F00041114A03C209E0D2
:103B000053EC192B9FED0C0B51EC100BFDF7EBFC5C
:103B10000B4A03C2BDEC088B10BD0000A8030020B7
:103B2000AC030020C05C00205C21002000000000ED
:103B300000000000780300204AD8124DFB211940F4
:103B4000800300202DED0E8B00BF00BF00BF0020C2
:103B5000D04908704870FEF75BFDFEF741F8FEF7AC
:103B6000B7FEFDF76DFF4FF47A70FEF70FF80020F7
:103B700000E0401C42F210718842FADBC648FFF7B1
:103B8000D9FBC449C448FFF7DBFCC349497801EBC2
:103B9000810101F10A00FDF78DFD41EC180B53EC9A
:103BA000182B9FEDBE0B51EC100BFDF714FDBD4A19
:103BB00003C2B949097801EB810101F10A00FDF75F
:103BC00079FD41EC180B53EC182B9FEDB40B51EC25
:103BD000100BFDF700FDB44A03C2AE48007898B957
:103BE00000200EE0AC49097801EBC10202EB0111A3
:103BF00000EBC101AD4A32F81110AD4A22F81010A5
:103C0000401CC828EEDB12E000200EE0A249097833
:103C100001EBC10202EB011100EBC101A54A32F830
:103C20001110A34A22F81010401CC828EEDB994856
:103C3000407898B900200EE09749497801EBC1021D
:103C400002EB011100EBC101984A32F811109A4AB7
:103C500022F81010401CC828EEDB12E000200EE015
:103C60008D49497801EBC10202EB011100EBC10162
:103C7000904A32F81110904A22F81010401CC828BF
:103C8000EEDBFEF747FEFEF74DF8FEF75FFEFEF7B0
:103C9000C5F801218948FEF781FE01218848FEF719
:103CA0007DFEF6E08748007800287CD186490870C0
:103CB00000BF854800780028FBD04FF47A70FDF7EC
:103CC00065FFFFF797FE74494878FDF704FD41EC66
:103CD0001D0B9FED7E0B53EC102BFDF763FB41ECAE
:103CE0001C0B9FED7C0B53EC102BFDF702FC41EC01
:103CF0001A0B7A4890ED000B53EC102B9FED780BCC
:103D000051EC100BFDF7F5FB41EC1B0B53EC1A2BA0
:103D1000FDF761FC41EC190B9FED730B53EC102B7D
:103D2000FDF740FB41EC180BFDF7E2FC7049086021
:103D30006348406A0968081A4FF6FF71081A60491B
:103D4000486200206B49087000BF6A48007800286C
:103D5000FBD04FF47A70FDF719FFFFF74BFE4E4989
:103D60000878FDF7B8FC41EC1D0B9FED580B53ECA8
:103D7000102BFDF717FB41EC1C0B9FED560B53EC82
:103D8000102BFDF7B6FB41EC1A0B5B4890ED000BD6
:103D900053EC102B9FED520B51EC100BFDF7A9FBD0
:103DA00041EC1B0B00E01DE053EC1A2BFDF713FC5C
:103DB00041EC190B9FED4C0B53EC102BFDF7F2FA75
:103DC00041EC180BFDF794FC4C4908603B4824304B
:103DD00000680968081A4FF6FF71081A374924313C
:103DE00008604FE02C494878FDF775FC41EC1E0B4C
:103DF0009FED360B53EC102BFDF77BFB41EC1D0BBD
:103E00009FED3F0B53EC102BFDF7CCFA41EC1C0B54
:103E100053EC1C2B9FED3C0B51EC100BFDF7DBFB27
:103E200041EC1A0B3A480068FDF744FC41EC1C0BCE
:103E30009FED380B53EC102BFDF7CDFB41EC1B0B2A
:103E400053EC1A2BFDF755FB41EC190B9FED330B8F
:103E500053EC102BFDF74DFB41EC180BFDF748FC24
:103E600004462B48006860B14FF6FF70001B1349F1
:103E700024310968401A114924310860002024497E
:103E8000086000BF27480078012801D1FEF7E8FA52
:103E900000BF07E7AA030020A80300206CED7DAA5D
:103EA000AA3A92406003002068030020AC0300207F
:103EB000380000200C3F0020C8010020000800400E
:103EC00000100040590300203700002000000000CF
:103ED000000000404AD8124DFB2109408003002019
:103EE000000000000068C040000000000000E03F4B
:103EF000A40300203600002078030020A003002047
:103F000000000000000024400000000000408F403E
:103F1000700300200000000000807640F6285C8FCF
:103F2000C2B53D405803002010B52DED0C8BB0EE0E
:103F3000408AF0EE608AB0EE419AF0EE619A53EC5E
:103F4000192B51EC190BFDF7D4FA41EC1C0B53EC77
:103F5000182B51EC180BFDF7CCFA41EC1D0B53EC70
:103F60001C2BFDF71FFA41EC1B0BB0EE4B0AF0EED9
:103F70006B0AFFF7E1F8B0EE40AAF0EE60AAB0EEEF
:103F80004A0AF0EE6A0ABDEC0C8B10BD000000007E
:103F90004FBB610567ACDD3F182D4454FB21E93F61
:103FA0009BF681D20B73EF3F182D4454FB21F93F50
:103FB000E2652F227F2B7A3C075C143326A6813CD6
:103FC000BDCBF07A8807703C075C143326A6913C81
:103FD000C4EB98999999C9BF711623FEC671BCBFED
:103FE0006D9A74AFF2B0B3BF9AFDDE522DDEADBF55
:103FF0002F6C6A2C44B4A2BF0D5555555555D53F6D
:10400000FF8300922449C23F6E204CC5CD45B73F87
:10401000513DD0A0660DB13FEB0D76244B7BA93FFF
:1040200011DA22E33AAD903F0000000000000000EA
:104030005040000800000020C05C00009C190008EF
:10404000785F0008C05C0020D067000008330008DB
:1040500012000120050102030404100606070809E6
:104060000110120A041264042019E803000010274A
:104070000000A086010040420F008096980000E1F9
:10408000F5053410325E08BC0819097509D00928F5
:104090000A7F0AD30A240B720BBC0B030C450C8459
:1040A0000CBE0CF20C220D4D0D730D930DAD0DC118
:1040B0000DD00DD90DDC0412D00C12AD1412731CEE
:1040C0001004220DF2281284301004030CBC3C10A2
:1040D00004240BD3481004280AD054103A1909BC00
:1040E000085E080008A2074407E7068B063006D8DA
:1040F0000581052D05DC048E044404FD03BB037C0F
:104100000342030E03DE02B3028D026D0253023F2F
:104110000230022702240412300C125314128D1C98
:104120001004DE020E28127C301004FD03443C1003
:1041300004DC042D481004D80530540009C6E706F5
:104140004407A2070008C80015FFBE0CD0093006BE
:104150004203240242033006D009BE0CDC0D1401D8
:104160007914025100010DFF7403018DC81E8D02E8
:10417000051EA200051EA9FE041E97FC04126596EA
:104180001E0BF8041E83F60412CAB812DBB612B86E
:10419000B41261B212D9B0162576164B7416547249
:1041A000164770162F6E141215078B06040681052C
:1041B00004058E042004BB035F6416C762166060AA
:1041C0001E2B0A041E2B08041E6006041EC70404CE
:1041D000165F8616209016049A1604A41E15FA037C
:1041E0001E2F88051E4786051E5484051E4B82051A
:1041F0001E2580051ED97E051E617C051EB87A0528
:1042000016DB3C16CA3A1683381A0BAA1665FC163A
:1042100097FA16A9F816A2F6168DF41673F2165E22
:10422000F01657EE1669EC1E9B6E0416F5E8167D27
:10423000E61636E01E258E041E488C041E9F8A0456
:104240001E2788041EDB86041EB584041EAC82046F
:104250001EB980041C16D1075E08EB087509FC091D
:104260007F0AFC0A720BE00B450CA104061E390202
:10427000061EA0000616D5C216D5C016A0BE163959
:10428000BC1EA126061EE030061EFC3A061EFC449B
:10429000061EEB86051AD1781AB9761AAC741AB5CF
:1042A000721ADB701A276E1A9F6C1A486A1E251440
:1042B000051E3612051E7D10051EF5E4041E9B0C1E
:1042C000051E690A051E5708051E5E06051E7304B5
:1042D0000512BC8416280816728C128480164D04B0
:1042E00016C18812D97C16939816F2841404030C14
:1042F00072821404280A758014040008447E12D8BF
:1043000072128EF6167C7A12B36E1A3FD216277688
:10431000166D02120EEE1004FD038EEC1804D80583
:104320008BBE01FF64052B2C1806EB08D009A910E1
:104330001E25AE031239601ACA0812CAC21A398879
:104340001225C01EA9260712EBBE1006150730065F
:1043500057BC1ADB7812C7BA1A36F812365416C789
:10436000E812DB521E573E0402FF15500140501E5A
:104370001970051624F016BEEE3EAD54051E939A34
:10438000041E84B80812D34A1EBCA8081E8B8A04D7
:104390001E8E860418040E038D401624DA168DD85E
:1043A00016BB841681D41404A207BCD21C06D30AFF
:1043B000BC0B8462043E939C051AAD901ABE8E1C01
:1043C0000A240B280A19090008E7E4081ADC861AEF
:1043D00042843E53C8081E6D36041E7C0C061E2DFA
:1043E00004061E442A041E7526041E7222041804A4
:1043F000F20C73721ADCD41A73D21245D01A7FCE23
:104400001A5ECC1C0830062D0544047CFE033E6D6C
:1044100010091E538C041A425C0007C8DC04D8053E
:10442000E706C81E47300512978416398E16DB083A
:104430001E61B20912E0C416A2061C041507D808B2
:10444000051EBB88051E6D04061E308C051E0E0C55
:10445000031C04DC04044407168D861C04FC0A03B8
:10446000E8053E73680612A0FE1665401254BA12A3
:10447000D1FC16573E165F801648C21E48C8051E5E
:104480005F8A071657C01C04D1071928061004724A
:104490000B65F63EA018061E7398061404030CFC68
:1044A00036168D7818040406DC441C040E037DD2F5
:1044B00007122BF01406F502BB03B5741E15E005B8
:1044C00016A2F81406E00BBE0C61B416DBF6163922
:1044D000701697B21647F416B96E1669B016C7F281
:1044E0001A25341E9F08091E20F8071A5E321C0484
:1044F000EB082898061E4518071E9308061ED01CB8
:10450000071AF2BC1404240BFCA81673EA1C04045A
:1045100005FDE8053E8D68061660621A9B6C16ACB8
:104520001E1E2F50061AA96A1AA1AC1AB8261AB86C
:104530006816A1E21AA9241A2F6616ACE01A9B226B
:104540003E6018061E8D98061C04FD030466081ABA
:1045500073A41C04FC092474041804F20C83A21A2A
:10456000D51C14060B0D450C4BD81AEB1A1A5E5CC1
:104570001C06200442039F200516259216C7D41A54
:1045800069DE16B9901A75141203383E936A051243
:104590004DE21272361EBCFA0412D86E167C522DF1
:1045A000F004166D8A1C04FD032DAC0501FF3205D5
:1045B0005D2C16A2C81A65001ACA38126194140438
:1045C0004B0BD0FC1D30091B05BB6C2D20091A8D2F
:1045D000DC1D10091DD2031E47D0031A25D81EB8B2
:1045E00010031E83920B1297C01A8D281A57603A37
:1045F000F5981E6DBC081A445C1A44941A7FCC18B6
:1046000004F20CA0581EA0880E1EE0B20316EB1E8A
:10461000111C38050427036D181806F502FD035711
:10462000881A8DC01A97F816831A1EB868031804E2
:10463000250CD3F41EA22C031E8E64033E8DA0090C
:104640001EC728031E04BC071E2FB0051E4BD00337
:104650001A61781ECAC40A1A65E81EA220031E5EEB
:104660005803169B761E36C8031A9F701C04B504A7
:10467000308C031D30091F0A45FC032D20091A73D5
:10468000DC1D10091D36041EB934041ADBD8164887
:104690000C1E7DE8081E69F4041E73B8031EA9F001
:1046A000033E0B280415A41DBE0B16549E180415BA
:1046B0000781CC1C040E0360E8031E60780B1E20EB
:1046C000DE041E15DC04111C170BD9682DA8031C71
:1046D000060B0D030CA918041673FC1A69F81E7D4D
:1046E00050051E48680316DB641C04B9065E2C03E3
:1046F0001E7264033E73A0091E3928031EFCEE07D8
:104700001ED190071AB5281E9FDA0B1E36D40B1E39
:104710009B7A05165E9012D02C12BE581EDC9008B3
:104720001EBE800812D0DC1630081642341E24A8A3
:10473000091E426C0602FF30280568181D44051F3B
:104740000B0B240D1ECA120D1AE0F0122F9E1A69CF
:10475000102D300B1AC7C01006AC05A207A24C18CA
:1047600004D90CAD641A4DBC1E7F1403168BDC1AE1
:1047700042341E27D00B1ABBE41E443C031A240407
:1047800029301E7348061ED328051EE764031A7CD1
:104790002C1E24700B1A7CDC1808E706EB08D30AE1
:1047A000652829801AA1D81C0647094407578803A1
:1047B0003E9FB8051E4228061E8B2C031E7F8403D5
:1047C0001A4D4C1D96071DA0081EA228031EAC8082
:1047D000033EC7400C1E0E68051E30D8051E284833
:1047E000061E22D4031EC1900C1ABCF41F0008D46C
:1047F000061F04F5440E1E36600C1E20E4071C063E
:10480000D107D00997A0032DC00C1A39C01C04543D
:104810000A5E44031E8E9C031E53F4031AB3BC1E8F
:104820008114031E756C031EBEC4031ED91C041A1A
:1048300045E41EBC88061EDC94032DC0031E8D4873
:10484000061E2DB8061E1964031E84BC031EDC94CC
:104850000D1A84DC1C08190915072D059BB8032DBA
:1048600010041E5F52081C06B906BC08A988033E46
:104870006148071EBE64041E752C031E8184031E3E
:10488000B304071DFA071D34081E5E28031E54706A
:10489000073E39D00D1EF2F8061ED068071ED84814
:1048A000061EDE940C1E3F28071E4498071E00EAD1
:1048B000061203FE16D92216844616BC6A168E8E80
:1048C0001E3F82081E0ED606128B6A12D38E2D64EE
:1048D00005124DD61406280A0008D81E3EB3F60469
:1048E0001E7C8A051E4414041272F81EC150081E54
:1048F000F21009167564162D881DBA041DF60C00F9
:1049000005FFFD03D80564052B2C1654D82DB805DA
:104910001A396812A2E81C040405421C031D66062D
:104920001DD0041E1580051A97882D20081E6518B5
:1049300003122FC43ADB181AB3841A30CC1C04D3E8
:104940000AA1380316CA261C064B0B1909B9F00533
:104950001EF5CE0A1E6030081E5758031804FC09C5
:1049600003341EDCDC0F1D400919E81657441E6095
:1049700078031804F5028E541A199C2FF20C780F44
:1049800016A1421E8D980338042004B39812DB9AB6
:104990001E2F80061665401ED51810169782180423
:1049A0001507DCDC1E3F640F1E4248061DD0131D98
:1049B000D8033E39C8061A45FC1C040008AC68033D
:1049C0002DB8051AC768165E1A1C04FC0ABE1C0323
:1049D0001D120E1D480916EB9E1A69882DB0091E7E
:1049E0009B18031C04D1072884032DA8031E4D1413
:1049F000041AD0CC1C042D055F38031E36000B1C96
:104A000006B504E70647F0051E0B98101EA0300BF4
:104A10001EA958031C040406FDC4031E24DC0F1D3C
:104A200040091D100616A9761EA078031C040B0D64
:104A300072E4031EE72C042F0E03780F1E5F2A0872
:104A40001E7398033C04E00B4D28041625941ED1D8
:104A50002803169B721E2BE20B1669B41C04EB088C
:104A6000246C041EC178101EBE540A1D50121DD89D
:104A7000033EC7C8061EBB8C041E00760716845270
:104A80001EC1E60A1ED3D20312D8D62DE00B1E0E8D
:104A90005E061E44F2031203B61ED9C80B16726ED0
:104AA0001D080F15301E24BC0A1E4458041E19A4EC
:104AB000061D421111761E03E61416442E2F0E0316
:104AC000580C16BB4C165EA812BE741EAD900A168A
:104AD0007F2C1681882D48151E42E00616A20C1662
:104AE00045681ED0740A1C04240BBC44051EFDB28C
:104AF000071E27660A168E0A1DD60E11CC1EDCC0B4
:104B00000C1EBCF40316E7E01DDE1015A21EFDC44A
:104B10001312BCCA2FF20C200D1245E816A244163F
:104B200042A01E53BC0702C981C812A9722D500EA3
:104B30001E25C014140415078EAC1E24CC081E8E2E
:104B40001C031404D00925381ECADA1416A95412FD
:104B500057FE2D900F1EDB5A161804EB08729C1E90
:104B6000DC000C1A727C14043006DBC41E36A80864
:104B700002FF57500540402C05D30AF20CF0041DEB
:104B80000E151956167CAA1E6DC6071A8BAA12039B
:104B90009E1EC1020B1004280A44B82D6A051E0E81
:104BA000E00601FF32055D2C1C04FC0A2240151EA4
:104BB000F25C081004A207B5181E2BE8082C07ACFD
:104BC00005BC08970B780F1D50081D36042F2004D4
:104BD000A0141C04BB035E50041E2516041EA0B0C6
:104BE000081E478A19129B601E7DB0051E15BC0366
:104BF0001EA14A041261DC1E8D9E042F2703C805E6
:104C00001808DC04D107D30A0BA81C040B0DD348E9
:104C1000053EDC28051E27C0051A8D202D400C16E8
:104C2000A1241C06150744047D500F1E9B920412FC
:104C300047A61EA0780F1F250C24111F06BBC8060F
:104C40001E6D2C091806E706FC0984D41E7348065D
:104C50001EBC28062F420320091006B504A207A98E
:104C6000EE1EDB661B1EFC20031C040405DE401543
:104C70001E0EB8061C045E084BC0051ED50816168D
:104C800054822F6904780F1DE0091D62052FE00B87
:104C900030161C04450CA27C051EDB7A041E600C39
:104CA000081EB9CC181E655C051E83A80916EB9872
:104CB0001E5FAE041E9FE006140673077F0AD9B07C
:104CC000180A390D240B2F082D05F5F81C04F502E0
:104CD0002DD8063E24B8061ED9680A1673E02D406A
:104CE0000C1E5FDC041C06EB08BC0B83E8111E6580
:104CF000BE051EB984051E60600D16DB7A1C04A279
:104D00000945C8061E93BC0A1C06190904067C2422
:104D1000031E8D48061C0444075458032DB00A1C7A
:104D2000044B0B5EDC031C040E032556181E04986E
:104D3000081224BC1ED0940812D0A416BB601E8D8D
:104D40006C0716A2482D1C061EBE900612E75C2DAD
:104D500088181E448805167F001EDC2A15127FE87D
:104D60001644A41E5314081004E706285A2D64069E
:104D70001D641111A02DE41212BB8816D0441ED060
:104D8000200B1406240B0008DCE81E30B0121E3085
:104D900020061245FC1673B8125EE42D1C061E4256
:104DA000BC071619882DC41C16BC7012819C1E24C9
:104DB00014091A811416BC401EAD0E0914041909F9
:104DC000D8862D64061D001115CC2DE4121645B4AD
:104DD0001230E01E30201903C8DC04C8124BDE1E5E
:104DE000B800091EEBAE061EF5080C192015D416E6
:104DF00084BC1004220DA9B02F2004B0171A8EEC29
:104E00001A24D41EC1340834041909ACD01DE80892
:104E10001D800719101D10181AD32C1C044404609F
:104E20003C0A1669CE2FFC0AF00F1E4544031ED81B
:104E30002C031D0A1D1DE4071247C22D500F16FC3E
:104E4000B61669CC1E604E071673F82D900B1665CA
:104E50005C1E04F81C29E012ACD61625B41A619821
:104E600016D1E02DC0181E20940716A95A1ED5F0A1
:104E70000816A286125FD41804F50281941A037CE6
:104E80001A736414040008B5421E48F8071A15D8AE
:104E90001E0BD4141DB0031D64031E7C4C031404AC
:104EA000DE0257142FE00B40191A72EC1ADCD41EE4
:104EB0003FC4093C04E7065460031DE80815C41DFF
:104EC000A0031D6C151E2DBC031C04BC0BA0200DE3
:104ED0001A97322F0405F00F1EBB44031E282C0323
:104EE0001DC21A1D300916B9EE2D500F1E04B6084A
:104EF0001A97301EA0980A1A8D5C2D200D169BC0A3
:104F00001EFC3A1C2D70041A54021ADBE01E9F2866
:104F100004162F7C2D501A1AE0701657BE1E2BB0A7
:104F2000121E5E641C1AA1001C040B0D7F24041EBB
:104F3000FD0C041E8DF40312002A1E93221B127214
:104F4000D2168E261E6DDA0601FF14057B040DFFB6
:104F50007E1D018DC80D62841C0DFF141E0D2914C9
:104F60001E12D0841E73C60616BE8C12BC80167F1D
:104F7000041E19041512A27C1E308A1A1D500D1130
:104F8000FE164282128D761E30D61A1E300C1A1E64
:104F90008D96051A424A1E44FE1D1E81821E1EE782
:104FA000D0191E5E8A1F1ED0581A1D1E0D1D5A1ABA
:104FB0001EBE9E1A1E73841202FFD064012C640D63
:104FC000FF4C1D018D500DF81A1D0194C80D62840F
:104FD0001C0DFF141E0D29141E12ADE41E450415F0
:104FE0001DAE0B158E1281E21242361E304E0B1E84
:104FF0008DF2111E44D61D1DD8241D941B1E247C29
:10500000061E22440B01FF32015D320DFF4C1D0DC7
:10501000294C1D0D62DC1E0DFF2E1D018D280D6219
:10502000841C0DFF141E0D29141E1E73F014127F14
:10503000481DEE071DCA1D2D300B1E429C251EE784
:10504000BE1B1E245A1E2D140B1E22FA1412D0B29F
:105050001281D61E8D261B1E8D30141E81FE1B1D37
:105060002E271D3C1C2DC00C1EBE50081E19281BCF
:1050700016DC402DA40C1EDEB6131E30481B1E7F0E
:105080007C1C02FF7364012C640DFF4C1D0D294C28
:105090001D0D62DC1E0DF81A1D0194C80DFF241DA4
:1050A000018D501E226818165EC81DF6331D76113C
:1050B0001E448E1B1ED0D21A1EAD6A0E1E45EA1A61
:1050C0001DA8141D601B1E3008081E81781B1E249D
:1050D000C22001FF32015D320DFF4C1D0D294C1D18
:1050E0000D62DC1E0DFF7E1D018DC80D62841C0D3E
:1050F000FF141E0D29141E0DFF283B018D141C30BA
:1051000060029C02D802140350038C03C8030404F9
:1051100040047C04B804F40430056C05A805E405DB
:1051200020065C069806D40610074C078807C4843E
:105130001C4C2F3C087808B408F0082C096809A416
:1051400009E0091C0A580A940AD00A0C0B480B847F
:105150000BC00BFC0B380C740CB00CEC0C280D6461
:105160000D70301006640D280DEC141006740C3808
:105170000CFC2412842C10040C0BD0381006580A96
:105180001C0AE048100668092C09F05812786010D3
:10519000040008C46C10064C071007D47C10065C91
:1051A000062006E48C10066C053005F49C127CA4E5
:1051B00010040404C8B0100650031403D8C04D0CEA
:1051C0003001C4C8167E8E16328C1406E6034004E5
:1051D0009A88124EFA16028416B682166A80161E35
:1051E0007E16D27C16867A163A781006EE0A480B9E
:1051F000A2AC16565E120AA816BE6E16466C169221
:105200006A16DE68162A6616766416C26214060EE0
:1052100009B4085A5E16A6CC16F25A163E58168ADB
:105220005616D654162252166E502EBAC61019149F
:105230001806F6025003AA10165E721A120C1AC64D
:105240000A1A7A081A2E061806E2073C0896021A6D
:105250004A001406FE09580AB2341666D6161A30E9
:1052600016CE2E1E827C2E1682F216CEF010041A56
:105270000CC01C18040C0BB22616FEE8164AE61ADF
:10528000964416E2E2162EE0167ADE16C6DC10040C
:105290001205B86C18040404AA8A16F6D41E420635
:1052A000171ABA981A6E961A22941AD6921A8A90D7
:1052B0001A3E8E1C06F2064C07A60E1F1A5A301A0A
:1052C0000E861AC2841A7682162AB816DEB616928E
:1052D000B42E465612197818060A0DB00C567416DC
:1052E000A2D61AEE701A3A6E1A866C1AD26A1A1E72
:1052F000681A6A661AB66418060206A8054E601E89
:105300009A02031AE65C1A325A1E7ED80E129C8448
:10531000168C08167C8C126C80165C04164C881A4D
:105320003CAC122CD0121C54120C781004FC0B74E0
:10533000761E64361016647E1274721284F6169409
:105340007A12A46E12B4F216C47616D4CA16E44EBB
:1053500016F472140404048C7002FF9C64052C2C57
:105360001ABA981804E6037C941AA80C1C04D406F4
:105370006A3C3C12965E1AC2881804EE0A848416AF
:10538000B0FC1EDC04031AB07C1684F41A58FC1C12
:10539000042C0996E01F166A1C163EE81404120538
:1053A0007CE41A50EC01FF50053F401C04D8028CED
:1053B000AA041804F404A8521610EC12784C1C0429
:1053C000E0099496041804FC0BB0481AA046123861
:1053D000E81AD0421A6840180600084C0798A01234
:1053E00030E41AC89C2DB8051A50341AB896122009
:1053F000901A882E1C04F008A456041E0C28061EC1
:10540000744E041EDC4A041E74460418040C0B5827
:10541000201AF0821688281C0420066C3204180416
:10542000040450161A607812C8D41A30741E981CDE
:10543000041E0048061A686E12D0D01A386A2DB8B9
:10544000051AB0CA1A486416E06C1E7828031C04BA
:1054500010075CF2031EF4EE031E8CEA0301C8C8B9
:105460001C06F602C8039AE203163E8E1C06E207EB
:10547000B40886A005162A8C16CE061646481EA22B
:10548000AE0616FE04165A4612B6C01006120540A5
:10549000046E7C1E7EF0051622C812C67A1E6AE0D3
:1054A00005160EC612B27816568212BEFC14061AE3
:1054B0000C480B76801ED27A3F162E3C1E8AB00511
:1054C00012E6F81A420212AAB4124EF61006F206BA
:1054D000C40796B2123AF416DEFE1E8200081E922F
:1054E000000616EE34164A7616A6B81406020630E2
:1054F000055E742D68061632F81AD63A1E7AD00563
:10550000161E2E1AC2381E663E081E0AD80E140633
:105510000A0D380C66B016C2F2161E6C167AAE165C
:10552000D6F01A32321ABA741E5EDA071602681AF8
:10553000A672164A241406EE0AC00B92A81682EA36
:105540001ADE2C163AA61E9680071AF22A164EA4C8
:105550001EAAD0051642601C06E603B8048AFE04A3
:105560001E2E802016D2A01E764007161A5C1ABE88
:10557000661656E01AB2221C040E093C8C031E98D3
:1055800098061EF418071C0450037E5C081E6E90DB
:105590000716129816B6DA1A5AE41C06FE09D00A43
:1055A000A22C052D68061ACE5C1A2A9E1E8660075C
:1055B0001AE25A1A3E9C1E9ADA071EF6E4251214C5
:1055C000E41406F404E405D41C12B47016945412C6
:1055D00074A816648C1284E012A4341EC42008122D
:1055E000E46C0005FF0404140332055D2C1E3258E0
:1055F000091E4EFE061A6A381286301AA2A829E041
:105600001EDE180312C2C416A6F81A8A301A6E6873
:105610001C04F60204FC081E20F4081E3CEC081AC8
:10562000589C1A74D41C08280D1A0C0C0BFEE609A1
:1056300012E2F01EC608031EAA40031EBA78031227
:10564000D68A1EF2CA211E0E4C0A1E2A060B1646C8
:105650001E1E5638031C0C3A0A2C091E081007029D
:1056600006F45C082D58081E8CA4031AA84C1C0CC8
:10567000C407D208E009EE0AFC0B0A960E16924AFD
:105680001A76B81A5AF01E3E28031222B21E428819
:10569000091E5EB2071A7A781296E21AB2E81ECE96
:1056A000D80E1ECE580316B2761E96C8031A7A700C
:1056B0001A5EA829E01E22F20A1E3E20091E5A8800
:1056C0000316760E1E92F8031C040A0DFCFC081E3D
:1056D000E0F4081EC4F4031AA89C1A8CD41C08D841
:1056E00002E603F40402120B1E1E040B1E3A480AC3
:1056F00016569E1E4678031C062A0B1C0A0E1040E6
:1057000016F2CE1AD6C81EBA5C0B1EAA380316C6ED
:10571000681C08E207F008FE090CEC092DE8091ED8
:1057200074A4031E58DC031E3C14041C082006123B
:10573000050404F652171E6E10041E8A480416A6AD
:10574000941EC228032FDE0B60031EB07C041E943F
:1057500024031E785C031E5C94031E40CC031E24AD
:10576000660A167C0A1ED406221E2C4A0A16848E4D
:1057700012DC2A1284561E2CB02212D4AE127CDA0D
:1057800001FF280567181E6E20051E02600B1A9681
:10579000981E2A0C0A25B81A66101AD2681A3EC03A
:1057A0001EAACA3012324C1804C60510641AA4BCD2
:1057B0001E38E80516ECDC1A58341AC48C1C043068
:1057C00005E610031804F60240041804D4061E88E7
:1057D0001AB2E01E46020E1ADE001E4A28231AB62E
:1057E000B01C042204D8E00B1E04E00C1A98541AD2
:1057F0002CAC1EC004031E645C031AD0241A3C7C2B
:105800001AA8D41A14A81C04C80312AE0A1AA6783F
:10581000123AB82DC8061E5680031AC24818042E24
:1058200007E4CC29F81E8C7C031E20D4031AB49CF8
:105830001A48F41EDC4C031E48A4031AB46C180466
:105840002006D6F02D48031E9A8E041E2EF8031A49
:10585000C2C01E56A61A16CE781C043A0AF0F403EB
:105860001A5CBC1EC8E8051E146C031EA8C4031EE7
:105870003C1C041C04D00A1A10031C040A0DC0941A
:10588000031C042C09E218041A4EE01EBAA00D1ED7
:1058900022420B1EB642401E4A40041C04DE0B2866
:1058A000700D1EFC8C031E68E4031ED43C041E40D5
:1058B00004031E9C5C031E30B4031C04C4070E20AA
:1058C0000D1EA200031E82D0061EEEB0031E5A0853
:1058D000041AC60C2DC8061EAA80031E3ED8031C3F
:1058E00004D2081C5C042D88041E747C031EE0D4C2
:1058F000031E4C2C041EB884041224DA1C04F40485
:105900005C5807122C6C2FFC0B300B16848E1EB4C7
:10591000460912E4462DDC0B1E04D00B12D4B21241
:10592000A4D61274FA16741E16A44216D4662F0456
:1059300004F80B1E7C86051E4C0C08161C402D78A6
:105940000B16FC88162CAC165CD002FF8C64052C60
:105950002C16AAD812B6421AC26812CEE81EDECEA3
:105960000912D2C616C6F82DB00E1A9A8812A6824F
:105970001EB2180325D01EEEF60A16E2063ED648E1
:10598000081E047C081E1024091E1C3C081E289CAE
:105990000E1A84A41A78EC1E6C34032D38051C04EE
:1059A000F4047A282312869E2DB8051C041A0C9440
:1059B00054031A880C1A7C541C04D8025E4E071E2D
:1059C0006A80051276DE2DE808162A2018041E08C3
:1059D00098BC29E01C04C8034E6C071E5A500616DA
:1059E00066821A46B8163A601C042E07A86C031E7D
:1059F0009C54101AB86C1C04C4074AB8081E56F808
:105A0000111E566803164AA01A3E681E32220E1E48
:105A100022FA0A1E2E300A1E3A48092D40101A6634
:105A200088165A7C1E4E18032D60031E125A0B1E38
:105A30001E980B3E2AD8091EFC0C0A1EF0100C1EE4
:105A4000E4CC091ED8740A1E7C34041A88EC1E9417
:105A500034032DC8061C040C0B86E803167AFC2DB3
:105A600048071C04E6036C54031E789C031E84E460
:105A7000031404280DA2FA1E960803168AD82D785E
:105A80000A16D6B61C04E2076808072D700418042D
:105A9000380CB23A1EA6B803169AB41EBA480416B9
:105AA000C6921C04D2085848061E6454101E48FCB6
:105AB000031E3C440414043005AA9012C85C1E1056
:105AC000E80A16581416A07012D03C12889812409A
:105AD000F41650501698AC12E0782D80121648300B
